:101000000000042009180000311800001D2C000009
:1010100035180000371800003918000000000000E3
:101020000000000000000000000000003B1800006D
:101030003D180000000000003F18000041180000AB
:10104000E5510000199D0000F55100004318000013
:101050004318000043180000914B000043180000A3
:1010600043180000A18F000043180000431800003F
:101070004318000043180000431800004318000004
:1010800043180000F9120000431800004318000044
:101090009913000043180000431800004318000093
:1010A00043180000431800004318000043180000D4
:1010B000431800004318000000000000000000007A
:1010C00043180000431800004318000043180000B4
:1010D000431800004318000043180000F96C00009A
:1010E00043180000431800004318000000000000EF
:1010F000000000004318000000000000431800003A
:1011000000000000000000000000000000000000DF
:1011100000000000000000000000000000000000CF
:1011200000000000000000000000000000000000BF
:1011300000000000000000000000000000000000AF
:10114000000000000000000000000000000000009F
:10115000000000000000000000000000000000008F
:10116000000000000000000000000000000000007F
:10117000000000000000000000000000000000006F
:10118000000000000000000000000000000000005F
:10119000000000000000000000000000000000004F
:1011A000000000000000000000000000000000003F
:1011B000000000000000000000000000000000002F
:1011C000000000000000000000000000000000001F
:1011D000000000000000000000000000000000000F
:1011E00000000000000000000000000000000000FF
:1011F00000000000000000000000000000000000EF
:101200000348044B834202D0034B03B11847704795
:10121000A0000020A0000020000000000548064BB0
:101220001B1AD90F01EBA301491002D0034B03B1E4
:1012300018477047A0000020A00000200000000018
:1012400010B5064C237843B9FFF7DAFF044B13B10E
:101250000448AFF300800123237010BD4801002033
:101260000000000060FE000008B5044B1BB10449FB
:101270000448AFF30080BDE80840CFE7000000005D
:101280004C01002060FE0000A3F5803A704700BFCB
:10129000154B002B08BF114B9D46FFF7F5FF0021B2
:1012A0008B460F461148124A121A0BF033FB0C4BB7
:1012B000002B00D098470B4B002B00D09847002004
:1012C000002104000D000B480BF0B3FA0BF0E0FA1C
:1012D000200029000AF08EFD0BF0B2FA0000080091
:1012E0000000000000000000000004204801002071
:1012F000E00B002069C80000F8B5204A204B00240C
:10130000C2F84041C2F84441C2F84841C2F84C41D9
:10131000C2F80041C2F804411B6833B31949D2F83E
:1013200004550A68AD1A1A6825F07F45AA42274677
:101330000DD8197CDE69AD1A144419B1D3E9052022
:101340001F7490471EB133461A68AA42F1D90E495C
:101350000E4A0B7812789A4208D00D480D4A40F890
:1013600023404FF48011C2F80011F8BD0132D3B20E
:10137000022B08BF00230B70EFE700BF00100140F5
:1013800084020020800200207D0200207C020020D8
:101390007402002000E100E02DE9F04FA54AA649C3
:1013A00013780978DFF8B0829942D8F8009085B0B8
:1013B00000F07F810133DBB2022B08BF00239F4C7A
:1013C00013709F4A276852F823107B1823F07F433D
:1013D0002360B9F1000F00F0B38100254B462E4683
:1013E0002C46AC4612E0DD68D869C3F800C014444E
:1013F000891A35B13A1922F07F42C3E90125DE612D
:101400001E460125002800F0578103461A688A42CB
:10141000E9D915B1C8F800008146521A1A600123B3
:101420000293884B884FDFF834A243F001034D4606
:1014300003934FF0000B7EB3D6E901033446F669FF
:101440007E4ADFF81CC21268811A21F07F41614593
:1014500000F29B800B440022C4E90032A260E261EA
:1014600001222274002D00F0A7802968994280F0A3
:101470009C802A4604E01068984280F0A1800146D2
:101480009446D2699E465B1A002AF4D160462360D6
:10149000E261C461002ECFD13B787878834219D0C5
:1014A00003EB430CBA7807EBCC0C0133DBB29A4266
:1014B00008BF00239CF80420DCF808403B70022A97
:1014C00000F09280032A00F08480012A00F09A80C4
:1014D0009842E5D1BBF1000F01D1A9452BD07DB3D6
:1014E000564A5A4B1468D3F80465594FD5F8008012
:1014F0003A78351B25F07F450335002A00F0E1805E
:101500005249A8452CBF4444641924F07F43C1F8D4
:101510004035D1F80425921B9B1B22F07F420332F9
:1015200023F07F439A4200F2E58000238AF80030DE
:1015300005B0BDE8F08F029B002BF6D0002DCFD177
:10154000444B4FF40032C3F88020BFF34F8FBFF3FA
:101550006F8F3E4E3B4C4FF480330127C6F8483323
:101560003C43C6F808334FF43C607760A047334BE8
:10157000B7604FF43C601D60A047354B1D700023E1
:101580008AF8003005B0BDE8F08F121A22F07F42D1
:101590009A4201D29B1A5EE700230122C4E900337C
:1015A000A360E36122743DB12968C8F80040C91AFC
:1015B0002960E56125463EE7C8F8004025463AE740
:1015C000CDF804C0A1EB0E0184466144019811607E
:1015D0005DE7002D3FF462AF00232B74ED69002D11
:1015E000FBD1C8F8005057E74DB1AC424FD02A4666
:1015F00001E0944236D01146D269002AF9D1002286
:10160000227465E7217C00297FF462AFDCF80C00CE
:101610006060DCF81030A360DCF81420E260DCF8D5
:101620001820A2619AF80020002A3FF409AF6160F7
:10163000084605E77C0200207D0200208002002091
:1016400074020020E0E3000064010020001001406B
:101650007102002000E100E08402002070020020FE
:10166000FEFF7F008C4213D0E3692068CB61DBB1C1
:10167000AC461A6802441A60AC454FF000023B7851
:10168000787822741CBF65464FF0010B20E729468D
:10169000D5F81CC0C8F800C0BCF1000F3FD0CB6922
:1016A0000868002BE5D1E7E700223B7878782274C0
:1016B0000EE700260296B4E6C8F8000081460295BF
:1016C000AFE64FF48031204AC3F84413C3F8041343
:1016D0004FF40031C2F8801111601C4A4FF001092B
:1016E00042F00102C3F800904FF43C60904787F845
:1016F000009005E7154BD1F80425C1F8402543F0CB
:1017000001034FF43C6098470F4B4FF40032C3F88D
:10171000002100238AF8003005B0BDE8F08F019168
:101720000B490C4A01238B604FF43C60C2F800C0A7
:101730008AF80030039B9847D8F800C00199AEE7BB
:1017400001234E4602936CE600E100E0E0E3000076
:1017500000100140800200202DE9F843214E4FF493
:101760000033C6F88030BFF34F8FBFF36F8F1E4D2D
:101770001E4FDFF890904FF480334FF001080024A3
:10178000C5F8483347EA0807C5F808334FF43C600A
:10179000C5F80480B847C5F808804FF43C60C9F824
:1017A0000040B847124A134B1470134A1C8014604F
:1017B000124A1470124A14700B229A704FF480125D
:1017C000C023C6F8802186F814333260C5F8088536
:1017D00086F81133D5F80435C9F800302046BDE845
:1017E000F88300BF00E100E000100140E0E30000EA
:1017F0007102002064010020840200207C0200208D
:101800007D020020800200200649074A074B9B1AF0
:1018100003DD043BC858D050FBDC06F059F9FFF754
:1018200037FD0000E403010008000020480100200B
:10183000FEE7FEE7FEE7FEE7FEE7FEE7FEE7FEE780
:10184000FEE7FEE7F0B595B0084600240E461746C1
:101850001D4602F0BFFE1A9A0D922346082205A9E2
:101860003046CDE9095408978DF82C400C9402F0CD
:1018700015FFDDE906219DF814308DF81140CDE902
:10188000021203F00302012A28D0022A04D03046B3
:1018900002F0A4FE15B0F0BDBDF81650C3F3C203AC
:1018A000C5F389158DF810300827082D2C4628BF60
:1018B00008243B4622460EA9304602F0EFFE2D1BBF
:1018C00008AB02AA21460EA8274401F051F8002DCA
:1018D000EBD1304602F082FE15B0F0BDBDF8141019
:1018E0000598C1F38312C3F3C203C0F39525C1F376
:1018F00083148DF810300EA930469200082302F0B0
:10190000CDFE08AB0093224602AB0EA9284600F09C
:10191000B9FF304602F062FE15B0F0BD704700BF5F
:1019200000B583B0044B0093044A4023FFF78AFFBD
:1019300003B05DF804FB00BF411900008C020020D9
:1019400038B50F480F4D03780F4CEB5C4FF0000C8F
:10195000D2B284F800C053B1043004F0C5F958B9CC
:101960000A4B1B7813B12378002BFCD038BD0C3008
:1019700003F0D0FE0028F3D001F0E4F8F0E700BF58
:1019800008000020EC070020CC0200208802002084
:1019900010B51548154A0378D35C88B0C3B104303C
:1019A00004F0EAF8124C0FCCEC46ACE80F0094E8D7
:1019B0000F008CE80F0006230B48009300226946B5
:1019C00003F022F840B90B4B00221A7008B010BD8A
:1019D0000C3003F01BFEE5E701F0B4F8054B0022E4
:1019E0001A7008B010BD00BF08000020EC070020EE
:1019F000E8E3000088020020054A00230428C1E92A
:101A00000132CB609CBF034B53F820300B60704712
:101A1000A4E80000C8E80000C368DB6800225A712F
:101A2000704700BFC368DB6801225A71704700BF6E
:101A300010B50F4B0F4CA4EB030E00220E4CCA60E6
:101A40005FEA1E1EC1E900228C600DD003EB0E1E62
:101A5000DC6894F804C0BCF1FF0F02D0904204D0BF
:101A6000013210337345F3D110BD9B680B6010BD7C
:101A7000ECFE0000FCFE0000DCE80000012903464B
:101A800004D08168D1F84811890704D50022114695
:101A9000184602F043B810B5054954681368054A62
:101AA00082B0CDE90014022101F094FC02B010BD17
:101AB00034E4000028E400008368D3F848319B0731
:101AC0002FD42DE9F04F194C194F3F1B3F0983B01C
:101AD00024D0DFF864B0DFF864A0DFF864908046BB
:101AE00004EB07170BE076790195002E14BF5D46D5
:101AF00055460095103401F06DFCA7420ED0D4E994
:101B000002363579FF2D4A464FF008014046EAD1AA
:101B1000084A103401F05EFCA742F0D103B0BDE8E2
:101B2000F08F0022114601F0F9BF00BFECFE00006B
:101B3000FCFE000060E400004CE4000054E40000FF
:101B400080E400008368D3F848319B0703D4044A3B
:101B5000022101F03FBC0022114601F0DFBF00BFAF
:101B6000A4E4000070B5344C84B004F5836001F047
:101B700055F904F2144001F051F9A368DAB2D11C0E
:101B800004EB810014F821104D0723D403F1020C5B
:101B900004EB82020133D1680191DBB204EB8303D1
:101BA00001F00302012ADE6865463ED0022A0FD109
:101BB000BDF80630C3F389130333360C0CEB9305E1
:101BC0001E4801F037F900B1A560304604B070BD81
:101BD0000026F5E701F00405017801F00301012971
:101BE00003F1020C0CD0022902F103010DD004EB29
:101BF0008100002DCCD0017801F003010129F2D140
:101C00000388C3F38313634402E043880CEB93130C
:101C1000DAB2D11C04EB810014F8211001F00405A4
:101C200003F1020C002DE6D1B2E7BDF80430C3F396
:101C30008313360C1D44C3E7A0030020B407002023
:101C40008368D3F848319B0703D4044A022101F08A
:101C5000C1BB0022114601F061BF00BFA4E4000037
:101C60002DE9F0410F4C104D52F8046C2D1B2D093D
:101C700007460FD004EB051502E01034A54209D049
:101C8000A16830460AF048FF0028F6D1E368587191
:101C9000BDE8F08133463846044ABDE8F0410221F0
:101CA00001F098BBECFE0000FCFE0000B8E4000070
:101CB0002DE9F041104C114D52F8046C2D1B2D09EB
:101CC000074610D004EB051502E01034A5420AD0F7
:101CD000A16830460AF020FF0028F6D1E36801220F
:101CE0005A71BDE8F08133463846054ABDE8F041F7
:101CF000022101F06FBB00BFECFE0000FCFE000003
:101D0000B8E40000104A30B4104DA2EB050C0023DB
:101D10000F4ACB605FEADC0C4B608A6011D00D4C3F
:101D200002E001339C4508D034F823209042F8D1DA
:101D300055F833300B6030BC7047002330BC0B606B
:101D400070476346F6E700BFECFE000064FE00004B
:101D5000A4E80000A00000202DE9F04FCB68404E21
:101D6000DFF828A15B79A6EB0A0685B08946804694
:101D7000F608002B6FD03B4A3B4B0821404601F050
:101D800029FB3A4A0821404601F024FB9EB3384D16
:101D9000DFF8FCB0B7000024D9F80C20117900233B
:101DA000EA5A94423ED004339F42F9D1DC460023E4
:101DB00035F82320A24242D001339E42F8D10021BF
:101DC00058468E46002335F82320944216D001331E
:101DD0009E42F8D18E45CDE900C0264A4FF000035F
:101DE00004F1010413D9244902914046082101F06D
:101DF000F1FAA642D0D105B0BDE8F08F8E45CDE90D
:101E000000C05AF833301B4A04F10104EBD81B49D7
:101E100002914046082101F0DDFAB442BCD105B080
:101E2000BDE8F08F164A01EB4101D25807238B40E1
:101E30001340CB40134ADBB252F823C0B7E70AEB9A
:101E4000C30393F806E00F4B7146032928BF032113
:101E500053F82100B6E70C4A022101F0BBFA8AE7E9
:101E6000ECFE0000F8E40000ECE4000018E50000DF
:101E7000A000002058E5000070E50000A0E400008C
:101E8000E4000020B4E80000D8E4000064FE000094
:101E9000D0E400008C461346C1686246FFF75CBF81
:101EA0002DE9F047124C134D52F8049C2D1B2D09BF
:101EB000074615D01646884604EB051502E0103497
:101EC000A5420DD0A16848460AF026FE0028F6D1AA
:101ED0003346424621463846BDE8F047FFF73CBF4F
:101EE0004B463846044ABDE8F047022101F072BA79
:101EF000ECFE0000FCFE0000B8E400002DE9F04F0D
:101F0000C96885B091F804A012B905B0BDE8F08F9A
:101F1000064690467549186807221F460AF00EFECD
:101F2000002861D1B8F1010F00F0D280704D044655
:101F300055F8041B78680A220AF000FE58B10134F3
:101F4000052CF5D17B686B4A0221304605B0BDE80F
:101F5000F04F01F03FBAE3B2B8F1020F019340F045
:101F6000B480654D654B5B1BDB08CED00AEB4A0A9B
:101F700004FA0AF405EBC309072303FA0AFB304607
:101F80005F4FDFF88C81DFF880A12646019C0CE0D2
:101F90002B680190022101F01DFA01980835A9452E
:101FA00007F1040708F10408AFD0AB79A342524609
:101FB000EED33A6882EA060303EA0B035340C3F305
:101FC000C202C3F382118A4238BF0A4603F00701F6
:101FD0008A4238BF0A463B60C3F34223934238BF6C
:101FE0001346A8F80230D9E74649386808220AF0B3
:101FF000A5FD002876D1B8F1010F044670D04FF04E
:1020000001090190C84580D90AEB4A0A04FA0AF38B
:10201000039309F18043013B374C384D07EB8307AD
:1020200007232D1B03FA0AF3ED08029357F804AFB8
:102030001DB34FF0000B03E00BF1010B5D451AD00F
:10204000202254F83B0051460AF078FD04EBCB0205
:102050000028F1D19179019B994215D213682A4A3F
:102060000221304601F0B6F909F10109C845DDD178
:1020700005B0BDE8F08FD7F800A0244A53460221EE
:10208000304601F0A7F9EFE71D4B039A53F82B00F8
:10209000029B1F4942401A40194B4240C2F3821032
:1020A00043F82B20C2F3C203834238BF034602F039
:1020B0000700834238BF0346C2F3422201EB8B0183
:1020C000934238BF13464B80CEE74FF0020999E7A1
:1020D000104A0221304605B0BDE8F04F01F07AB950
:1020E00001903EE73B680C4A2EE700BF74E5000014
:1020F000B4E80000ECE5000064FE0000ECFE000027
:10210000E400002094E50000B4E50000D8E50000FC
:10211000A00000207CE500009CE500008C461346F2
:10212000C1686246FFF7EABE2DE9F047124C134D35
:1021300052F8049C2D1B2D09074615D016468846DB
:1021400004EB051502E01034A5420DD0A168484605
:102150000AF0E2FC0028F6D13346424621463846D2
:10216000BDE8F047FFF7CABE4B463846044ABDE813
:10217000F047022101F02EB9ECFE0000FCFE000049
:10218000B8E4000030B499B10D490E4D491BC9089F
:1021900013D00D4C002302E0013399420AD034F8E9
:1021A00023208242F8D1184655F8300030BC7047E1
:1021B000044DF9E7002030BC70470846F6E700BF41
:1021C000ECFE000064FE0000A0000020094B013975
:1021D00003EBC00003290BD8DFE801F00402080676
:1021E000042070470220704740797047007970479B
:1021F0000020704764FE0000704700BF2DE9F047E3
:10220000964CD4E901239A4284B064D00023C4F8E8
:102210001834BFF34F8FA568EAB2D31C04EB8301D7
:1022200014F82330580718D566680B7803F00303B9
:10223000012B46D0022B03D14B88023505EB9315B9
:10224000EAB2D4F81804D31C04EB830128B9AE42D7
:102250003DD914F823305B07E7D404EB82026B1CF2
:10226000DBB2D26804EB830302F00301DB680229CE
:10227000CDE9012305F1020731D0012900F0A58045
:10228000D4F810543DB12B6828469B689847EB68FA
:102290001D68002DF7D1724B5B88012B09D971485D
:1022A000714B7249C01AC008000440F0020000F0EF
:1022B00039FAD4E90130C01A18BF012004B0BDE8D2
:1022C000F0870B880235C3F383131D44B8E7A6607B
:1022D00004B0BDE8F087002004B0BDE8F087BDF889
:1022E000063063489DF80460C3F389194D46502DAC
:1022F00028BF502565F38F1305F10801ADF80630AE
:1023000002F01EF9C6F3C20680460028B8D002F0DB
:1023100061F90023082201A9404602F08BF9FB4332
:10232000DBB20133FAB20332B5EB830F04EB820167
:102330004FEA830A40F28880A5EB0A0552464046E0
:102340000823EDB202F076F94A490AF108032A4659
:10235000404602F06FF909F1030907EB9907D4F839
:102360001834D4F81054002B74D105B3DFF808A149
:102370004FF00709EB685A79B2B1BDF80820197916
:102380005AF8220001EB410109FA01F2052E02EA96
:10239000000208BF0326CA40964205D82B6828468B
:1023A0001B6841469847EB681D68002DE2D1404606
:1023B00002F014F9002000F01FFCD4F8183403B91F
:1023C000A760002000F020FC73E7BDF804602848F7
:1023D000C6F38313062B28BF062363F38916023343
:1023E00003F00F018900ADF8046002F0A9F8C6F30C
:1023F000C206804600283FF443AF02F0EBF800230A
:10240000082201A9404602F015F9BDF8043013F482
:10241000707FA4D06FF00109A9EB05090825F9B276
:1024200003312B46042204EB8101404602F002F9FD
:10243000BDF804300137C3F3831309EB070293425D
:1024400005F10405EBD88AE72A460823404602F046
:10245000F1F880E7404602F0C1F82AE7A003002027
:10246000B800002094FE000064FE00000CE60000AE
:1024700034FF0000AC030020E40000202DE9F04709
:10248000DFF8ECA00546002098460F46914600F084
:10249000B3FBDAF80830DAF8046003F580739B1BAD
:1024A000052B61D80AF21C440121204600F09EFC55
:1024B000FFF758FB0146204600F098FCDAE90123BB
:1024C00003F580739B1A052BEED9D3B20333063282
:1024D00040F2051100204AF82310CAF8042000F049
:1024E00093FBB31CDBB20AEB8303089AC3F80C908E
:1024F000F31CDBB20AEB83031C48C3F80C80331DCA
:10250000DBB20AEB83030021DA60731DDBB20AEB56
:102510008303099ADA6000F05FFC80F310031B0468
:1025200043EA1543ED00721C05F0380545F480754B
:10253000D2B2F6B245F001050AEB8202033645EA53
:102540008725D3604AF826509AF800301BB9FFF768
:1025500053FEBDE8F087FFF751FE0028F7D0FFF7E4
:102560004DFE0028F7D1F2E73246AEE7BC07002067
:10257000A00300202DE9F047DFF8DCA0054600208D
:1025800098460F46914600F037FBDAF80830DAF843
:10259000046003F580739B1B042B58D80AF21C447B
:1025A0000121204600F022FCFFF7DCFA014620461C
:1025B00000F01CFCDAE9012303F580739B1A042B5D
:1025C000EED9D3B203330532C52100204AF82310D7
:1025D000CAF8042000F018FBB31CDBB20AEB83033B
:1025E000089AC3F80C90F31CDBB20AEB83030021BA
:1025F000C3F80C80331DDBB20AEB83031548DA60A5
:1026000000F0EAFB80F31002711CEB0003F03803CA
:10261000C9B2F6B2120443F0C1030AEB81010336DA
:1026200043EA872342EA1542CA604AF826309AF8FC
:1026300000301BB9FFF7E0FDBDE8F087FFF7DEFDD6
:102640000028F7D0FFF7DAFD0028F7D1F2E732468D
:10265000B7E700BFBC070020A00300202DE9F84326
:10266000DFF8BC90054600200F46904600F0C4FA03
:10267000D9E9016303F580739B1B022B4CD809F247
:102680001C440121204600F0B1FBFFF76BFA014624
:10269000204600F0ABFBD9E9012303F580739B1AB8
:1026A000022BEED9D3B2033303324521002049F87F
:1026B0002310C9F8042000F0A7FAB31CDBB209EB21
:1026C00083030021C3F80C80144800F085FB80F3DD
:1026D0001002711CEB0003F03803C9B2F6B2120409
:1026E00043F0410309EB8101033643EA872342EAC1
:1026F0001542CA6049F8263099F800301BB9FFF737
:102700007BFDBDE8F883FFF779FD0028F7D0FFF7E0
:1027100075FD0028F7D1F2E73246C3E7BC07002079
:10272000A00300202DE9F041294C064600208846F0
:1027300000F062FAD4E9017303F58073DB1B012B0F
:1027400044D804F21C450121284600F04FFBFFF756
:1027500009FA0146284600F049FBD4E9012303F5B4
:1027600080739B1A012BEED9D3B2033302320521B9
:10277000002044F82310626000F046FA002115485A
:1027800000F02AFB80F31002791CF30003F03803F9
:10279000C9B2FFB2120443F0010304EB8101033715
:1027A00043EA882342EA1642CA6044F82730237875
:1027B0001BB9FFF721FDBDE8F081FFF71FFD0028E1
:1027C000F7D0FFF71BFD0028F7D1F2E73A46CBE739
:1027D000A0030020BC07002038B5084BD3F81044F4
:1027E00001251D704CB1E3685D71236820465B686C
:1027F0009847E3681C68002CF5D138BDA003002081
:1028000030B5C38885B004460D4623BB237A052B1B
:102810001FD0627A82B9144AA08852F8232003920A
:102820000021FFF7AFFC039A10490346284605B084
:10283000BDE8304001F0EEBA1946A088FFF7C6FCAB
:102840000B4B0C4953F82020284601F0E3FA237A79
:10285000E1E705B030BD08490091084A084928461B
:1028600001F0D8FAD2E700BFCCEA000050EA00003D
:10287000A8EA00004CEA000044EA000024EA000054
:102880002CEA00002DE9F04385B01D460C9C002386
:1028900094F80C90237380460E461746214628462E
:1028A000FFF7AEFF062F09D8DFE807F0042E343B10
:1028B000444F1F004146204601F0ACFA2B7A052B0D
:1028C00005D06B7A5BB92749204601F0A3FA204670
:1028D00001F094FA84F80C9005B0BDE8F083224A28
:1028E0002249204601F096FAEDE7736903933369B4
:1028F0000293F3680193B3680093D6E9002341463D
:10290000204601F087FAD9E732684146204601F0B7
:1029100081FAD3E7D6E900234146204601F07AFA4E
:10292000CCE7B3680093D6E900234146204601F086
:1029300071FAC3E7F3680193B3680093D6E9002303
:102940004146204601F066FAB8E733690293F3681E
:102950000193B3680093D6E900234146204601F075
:1029600059FAABE77CE4000044EA00004CEA0000BE
:10297000082900D970472DE9F04F1D4683B0002487
:102980001B7B2C730E460746294610469046019342
:10299000DFF8D0B0DFF8D0A0FFF732FF05E03A5DF6
:1029A000013401F037FA082C09D0A64251462846D6
:1029B000F5D85946013401F02DFA082CF5D12449F7
:1029C000DFF8A8B0234CDFF8A8A0284601F022FACF
:1029D0004FF0000917E017F80910481C7E294FF046
:1029E0002E02C0B206D81AF8002012F0970F14BFBA
:1029F0000A462E222146284609F1010901F00AFA69
:102A0000B9F1080F0AD04E45E5D85946284609F1D4
:102A1000010901F0FFF9B9F1080FF4D198F8083075
:102A2000052B02D098F809305BB90B49284601F014
:102A3000F1F9284601F0E2F9019B2B7303B0BDE8E0
:102A4000F08F064A0649284601F0E4F9EDE700BF99
:102A500068EA00006CEA00007CE4000044EA000040
:102A60004CEA000064EA00005CEA000058EA00005A
:102A700059FD0000064B1A5C1F2A86BF054902F06B
:102A80001F024FF0A04101239340C1F80C3570475D
:102A9000E0EA000000030050064B1A5C1F2A86BFC4
:102AA000054902F01F024FF0A04101239340C1F8F5
:102AB00008357047E0EA0000000300500A4B185C3C
:102AC0001F288ABF09494FF0A04100F01F00D1F82C
:102AD00004350122824022EA03001340C1F80805B0
:102AE000C1F80C35704700BFE0EA00000003005059
:102AF000C10706D4830742BF114B0C22C3F800273D
:102B000070474FF0A043032210B44FF40001C3F804
:102B100058274FF48004C3F85C27C3F860274FF0B0
:102B20008072C3F80845C3F80815C3F80825820762
:102B300003D5034B0C22C3F800275DF8044B704704
:102B40000003005000B585B00346002101AA44F2FD
:102B50000100CDE90111039300F004F805B05DF820
:102B600004FB00BF70B572B6FFF736FEFFF746FBF9
:102B70000028FBD1194D6B88FBB9194BD3F8F03005
:102B8000DB070DD5174C184E00BE6B88012B07D9FB
:102B9000A01BC0080004154940F00200FFF7C2FD69
:102BA000BFF34F8F0E49124BCA6802F4E062134321
:102BB000CB60BFF34F8F00BFFDE70A4C0A4E0D49B3
:102BC000A01BC008000440F00100FFF7ABFD044B60
:102BD000D3F8F030DA07D8D5D6E700BFB800002028
:102BE00000ED00E094FE000064FE0000F0EA00004A
:102BF0000400FA05E4EA000072B6024A13680133E1
:102C000013607047C0070020034A1368013B13603C
:102C100003B962B6704700BFC00700201EF0040F62
:102C20001CBFEFF309800AE0EFF308800549064A6C
:102C3000884201D8904202D88D464FF00000034BE5
:102C4000184700000000042000E00320752C00005D
:102C5000BFF34F8F0549064BCA6802F4E062134385
:102C6000CB60BFF34F8F00BFFDE700BF00ED00E07A
:102C70000400FA052DE9F04F83B08146FFF7ACFD63
:102C8000FFF7BCFA0028FBD1464B4749474ADFF81B
:102C90004081956AA3EB010A4FEADA0A4FEA0A4A31
:102CA000B8F802304AF0010AB9F1000F72D0002BD7
:102CB00040D13E4BDB6A3E4FDFF818B100240126BD
:102CC00002E001341A2C12D006FA04F32B42F8D099
:102CD00057F82420002AF4D0B8F80230002BF0D0A6
:102CE000594650460134FFF7B9FC1A2CECD12A069C
:102CF0000ED5B8F802302BB94846FFF7A9FF03B04C
:102D0000BDE8F08F294B2B495A6B5046FFF7A6FCC4
:102D10002B04F1D5B8F80230002BEDD0234B264917
:102D20009A6B5046FFF79AFC4846FFF791FF03B0B5
:102D3000BDE8F08FD9F8182020495046FFF78EFCE7
:102D4000B8F80230002BB4D0D9F80C300193D9F880
:102D500008300093D9E9002319495046FFF78EFB4C
:102D6000B8F80230002BA4D0D9F81C300093D9E970
:102D7000042314495046FFF7FDFB0C4BDB6A99070F
:102D800099D5B8F80230002B95D00F495046FFF77F
:102D9000C9FC90E7002B8CD00C495046FFF7C2FCD1
:102DA000EBE700BFD4FE000064FE000000ED00E091
:102DB00054F1000038EC000058EC00003CEB00003F
:102DC00054EB00008CEB0000E8EB0000B4EB0000DB
:102DD000D80000202CEC0000034653E8000F0A4600
:102DE00043E8002C9CF0000FF7D17047034653E8EE
:102DF000002F02EB010043E8000C9CF0000FF6D11D
:102E0000704700BF034653E8002FA2EB010043E8E0
:102E1000000C9CF0000FF6D1704700BF0346012262
:102E200053E8001F41EA020043E8000C9CF0000F49
:102E3000F6D170470346002253E8000F00EA020172
:102E400043E8001C9CF0000FF6D170472DE9F047D5
:102E50008368D3F84831C3F340059B0788B045D455
:102E600001293CD8254C264B264F1B1B9A081B2BAF
:102E7000A7FB022730D9DFF894A006464FF064097B
:102E8000A8462368A268187919686368B4F818E03E
:102E9000CDF800E0511AD21A00EB8003C9B203EB5F
:102EA0008303CDE90602CDE9031209FB01FC9B0077
:102EB000BCFBF2FCB3FBF2F3CDF808C00593CDF8F0
:102EC00004806369524608213046013500F082FAD9
:102ED000AF4204F11C04D4D808B0BDE8F0870A4A18
:102EE000022108B0BDE8F04700F074BA0022114694
:102EF00008B0BDE8F04700F011BE00BF34FF00008D
:102F000050FF000025499224BCF10000D0F10000E0
:102F100038B504460020FFF76FFED4E900311A6887
:102F20008A4215D9511E19602168A36812F8012C34
:102F3000208B0D68E4685B1B00FB02440A79DBB25E
:102F40009A4200D20B710020FFF75EFE204638BD8A
:102F500000240020FFF758FE204638BD38B505464E
:102F600000200C46FFF748FE2A681368591C1160C0
:102F7000E9682A8B641AB4FBF2F41C70BDE838408F
:102F80000020FFF741BE00BF2DE9F04105468068F3
:102F90004C4E82B0002480222146A0308DF80340A0
:102FA00009F0B8FC4849286900F034FF286900F0AE
:102FB00025FF4FF47A7846F001066868076801AB90
:102FC0000DF103013F690122B847019B611CD3B198
:102FD0009DF80330AA681B2B02EB040006D092F880
:102FE000A0C0BCF11B0FE8D1522B1BD0CCB2092CD6
:102FF00080F8A030E1D9AB68002283F8A02004203B
:1030000002B0BDE8F0814FF6C010B047019B002B25
:10301000D3D108F1FF371FFA87F8B8F1000FCCD1F0
:103020000D20EDE7002480F8A040D5F808C09CF8FA
:10303000A1305B2B3FD10CF1A107022002E08028D8
:103040008CB234D017F8016F431C04EB8402A6F154
:1030500030013B2ED8B201EB42015BB2EFD1002B25
:1030600025DB00F19F0EE644002102E03B0691B211
:103070001DD41EF8016F01EB8103471CA6F130023D
:1030800002EB4302F8B2002EF0D1FA2928BFFA2150
:103090008CF81410AB68FA2C86BFFA229A759C75CE
:1030A000AB68002083F8A00002B0BDE8F0810C20DE
:1030B00002B0BDE8F0810B208CF8A04002B0BDE862
:1030C000F08100BF70F7000064F700002DE9F04FB9
:1030D0007C4D0B78EB5C8BB013F008030291074634
:1030E000069200F0EC800B46C1F1010101EB0309EF
:1030F00013F8012FAA5C1607F8D4069AD3B20593E9
:103100001346029A9B1A0793029C204609F00EFD73
:10311000BB6893F819C0069BA0EB0900ACEB030B4E
:10312000584572D9224609F1FF331344079ACDF866
:103130000490C4F10104A4EB090AA2EB090E5A7829
:10314000A95C0AEB030803EB0409090703F1010377
:103150000EEB030002D50A2A52D0C3468445EED8AE
:10316000DDF80490029A09EB0B030493D318039340
:10317000D846386900F042FEB8F1000F24D04FF075
:10318000000B09ABCA467868029902680193D668B9
:1031900051444246B0470999019B31B1B8EB01084F
:1031A0008B4411D009EB0B0AEDE7BA6811780329BB
:1031B000E9D0D2F848118906FBD5B2F848116FF36F
:1031C0004511A2F84811DEE7039B1B78EB5C18075A
:1031D0005DD5049B029A134403EB040913F8012FF5
:1031E000AA5C1207F8D43869374900F013FE059B32
:1031F000002B89D0354938691A4600F00BFE83E769
:10320000CDE90339DDF80490B3E7002833D0029A02
:1032100009F1FF33134409F101020024019202E095
:103220000134A04227D013F8012F0A2AF8D13869B7
:1032300000F0E4FDB4B1A2464FF000080DF1240BFC
:103240004E467868029902683144D5685B4652461A
:10325000A8470999F1B1BAEB010A884402D009EBF9
:103260000806EEE7019B184938692344994600F0A7
:10327000D1FD059BEBB902993869494400F0CAFDBC
:10328000114938690BB0BDE8F04F00F0C3BDDDF85F
:103290001090A8E7B8680378032BD2D0D0F8483153
:1032A0009D06FBD5B0F848316FF34513A0F84831BF
:1032B000C7E7064938691A4600F0ACFDDBE79946D6
:1032C0001BE700BF5AFD00005CF20000E4F20000C2
:1032D0000CB430B585B008AB816853F8045B01933A
:1032E000D1F848315B07044602D5CB7E082B09D1C3
:1032F000206901AA294600F053FE05B0BDE8304020
:1033000002B0704702221B31684609F0F5FAA36843
:10331000DA7E082A0AD02B492B4ACDE9021208226C
:10332000DA762A4920696A4400F074FD206901AA0E
:10333000294600F035FE9DF80030002B36D0A268FB
:10334000D17E994211D01F48029033218DF80C1084
:1033500003F12F006D218DF80D00ADF80E10D3761E
:103360001A49206902AA00F055FD9DF80130002B92
:10337000C3D0A268117F9942BFD045F61B303421DB
:10338000ADF808008DF80A1003F12F006D218DF8BB
:103390000B00ADF80C1013770C49206902AA00F05D
:1033A00039FD05B0BDE8304002B07047A168084A59
:1033B000CB762069054900F02DFD9DF80130002BEA
:1033C0009BD0D6E71B5B313B33376D004CEA0000E6
:1033D00054F700000CB470B584B008AB044653F841
:1033E000046B80680193D0F848315B0703D5C37E36
:1033F0008B420D4609D1206901AA314600F0D0FD6B
:1034000004B0BDE8704002B0704700F11B01022219
:10341000684609F071FAA368002D60D0DA7EAA42EE
:1034200011D0324A029233228DF80C2005F12F027E
:103430008DF80D206D22ADF80E20DD762C49206927
:1034400002AA00F0E7FC206901AA314600F0A8FDBD
:103450009DF80030002B36D0A268D17E994211D061
:103460002248029033218DF80C1003F12F006D21BA
:103470008DF80D00ADF80E10D3761D49206902AA13
:1034800000F0C8FC9DF80130002BB9D0A268117F74
:103490009942B5D045F61B303421ADF808008DF8BF
:1034A0000A1003F12F006D218DF80B00ADF80C1000
:1034B00013770F49206902AA00F0ACFC04B0BDE804
:1034C000704002B07047A1680A4ACB76206908496B
:1034D00000F0A0FC9DF80130002B91D0D6E7DD76FE
:1034E000044A0349206900F095FCACE71B5B313BC3
:1034F0004CEA000054F700002DE9F04F814687B0F8
:10350000524809F013FB0546514809F00FFBD9F862
:103510000830504A5B6800922D1A4F4A48460821ED
:10352000FFF7D6FED9F808305868ADB2002800F091
:103530008A8009F0FBFA84B2464809F0F7FAD9F814
:1035400008309968204482B211B14846FFF7BEFDA9
:10355000424A00214846FFF73DFF3D4809F0E6FAA0
:1035600002302C1839493E4A0091A4B22346082162
:103570004846FFF7ADFEE21C3A4992B24846FFF7D3
:10358000A5FDD9F80830D3F80C80B8F1000F4FD062
:1035900000252E462F460EE0A047029802ACB8B197
:1035A00009F0C4FAB84205D92068002843D009F0D0
:1035B000BDFA87B2103598F80020D8F8044030469C
:1035C00002A90136002AE7D160592C440028E7D12E
:1035D000012E2DD0244ADFF888B00021484607F19B
:1035E000020AFFF7F7FE00251FFA8AFA12E0984751
:1035F000029E02ACE6B108215A4648465346009660
:10360000FFF766FE61687A1D92B24846A9B1FFF7DE
:103610005DFD013598F80020D8F804302C0102A98E
:103620002846002AE3D11E5903EB0514002EE2D1EF
:1036300007B0BDE8F08F0746BCE70C49D9F8100089
:1036400000F0E8FBE5E7044676E700BF78F7000006
:10365000DCF800006CF7000098F400009CF3000018
:10366000A8F30000B0F30000C4F300005CF2000017
:10367000F0B50129856883B010D0D5F848319B0793
:1036800044D4022947D854682A4913682A4ACDE904
:1036900000140221FFF79EFE03B0F0BD0446FFF7C1
:1036A00073FC28BBA368254920691F7D9E7DFA22F3
:1036B00000F0B0FB20692249FA2200F0ABFB204663
:1036C000FFF762FCA0B9A3681A7D6A76A368D21BD3
:1036D0009B7D2B7612F0FF0225D19B1B13F0FF027E
:1036E000DAD01849206903B0BDE8F04000F092BB81
:1036F000A36850225A76A368134A182119762046E7
:10370000042103B0BDE8F040FFF764BE03B0BDE89C
:10371000F040FFF7F1BE6B680C4A022103B0BDE830
:10372000F040FFF757BE0A49206900F073FB2B7E7B
:10373000D3E700BF34E400002CF40000E4F2000002
:10374000ECF20000FCF20000D4F3000010F40000E2
:10375000F4F2000001290AD0022904D18368D3F8C9
:1037600048319B0703D4034A0221FFF733BEFFF71A
:10377000C3BE00BF40F30000022910B5044604D1C7
:103780008368D3F848319B070BD42069074A08495E
:1037900000F040FB2069074A0549BDE8104000F0F1
:1037A00039BBBDE81040FFF7A7BE00BF60F70000BF
:1037B0004CEA000058F700008368D3F84821C2F3B0
:1037C000400C920708D4012908D1B3F848216CF3C2
:1037D000C302A3F848217047FFF78EBE5B68024A18
:1037E0000221FFF7F7BD00BF10F400008368D3F893
:1037F0004821920708D4012908D1B3F8482142F0A2
:103800000802A3F848217047FFF776BE5B68024ABA
:103810000221FFF7DFBD00BF10F400008368D3F87A
:103820004821920708D4012908D1B3F8482142F071
:103830000402A3F848217047FFF75EBE5B68024AA6
:103840000221FFF7C7BD00BF10F400008368D3F862
:103850004821C2F3400C920708D4012908D1B3F8DB
:1038600048216CF38202A3F848217047FFF744BE59
:103870005B68024A0221FFF7ADBD00BF10F40000F3
:1038800030B48468D4F848219307C2F3400509D4C2
:1038900001290AD1C4F83851C3685B6830BC186884
:1038A00000F0BABF30BCFFF727BE6368024A30BCE5
:1038B0000221FFF78FBD00BF10F400008368D3F82A
:1038C000482192070FD401290FD110B50446094AA7
:1038D0000949006900F09EFAA36850225A76A3684D
:1038E00018221A7610BDFFF707BE5B68034A022153
:1038F000FFF770BD4CF700004CEA000010F4000028
:1039000030B58568D5F84841A30783B0C4F3400CAF
:1039100011D4022914D81BD0D5F848211149124BD3
:1039200012F0080F114A18BF0B46614603B0BDE8FC
:103930003040FFF74FBD03B0BDE83040FFF7DCBDBE
:103940006B680B4A022103B0BDE83040FFF742BD6F
:103950005568084C1368084ACDE90045FFF73AFD61
:1039600003B030BDACEF000038F400003CF40000C0
:1039700010F4000034E400002CF4000070B58568F9
:10398000D5F84821930784B0C2F340061DD401291D
:1039900020D1C3685B681D680446284600F038FFE4
:1039A000AD68A368C2B22046642402FB04F4B4FBF1
:1039B000F5F4E4B2D3F838310094CDE9012531466D
:1039C000084AFFF707FD04B070BD04B0BDE87040C1
:1039D000FFF792BD6B68044A022104B0BDE8704055
:1039E000FFF7F8BC50F4000010F4000001298446F1
:1039F00020D030B58468D4F84851AB0783B00BD4DD
:103A000002290FD155680C4C13680C4ACDE90045CA
:103A1000FFF7E0FC03B030BD604603B0BDE83040C6
:103A2000FFF76ABD6368064A022103B0BDE8304073
:103A3000FFF7D0BCFFF760BD34E400002CF40000B9
:103A400010F40000F0B58368D3F84821C2F34004B5
:103A5000920787B029D401292CD1D3F84051FDB168
:103A6000184F064628460023092203A900F016FE37
:103A70009DF81420B168284609230132A03100F0D6
:103A80000DFEB268049DA0322346009200213A4602
:103A900030460134FFF79EFC0DB1082CE2D1B3682B
:103AA000002283F8A02007B0F0BD07B0BDE8F040C9
:103AB000FFF722BD5B68044A022107B0BDE8F04071
:103AC000FFF788BC88F4000010F400000129844648
:103AD0000AD002290B460FD08268D2F84811890714
:103AE00002D4022B03D870476046FFF705BD536828
:103AF000074A0221FFF76EBC30B5064C55681368C3
:103B0000054A83B0CDE90045FFF764FC03B030BD42
:103B100010F4000034E400002CF400002DE9F04F14
:103B2000074689B0A9480C46154608F0FFFF06462F
:103B3000A74808F0FBFFBB68A64A5B680092361AEC
:103B4000A54A38460821FFF7C3FBBB685868B6B2E0
:103B5000002800F0398108F0E9FF1FFA80F89D483D
:103B600008F0E4FFBB689968404482B211B138465E
:103B7000FFF7ACFA994A00213846FFF72BFC9DB3BA
:103B800094B36B00039305EB450A4FF0000804F172
:103B900004091FE008F0CAFF54F8282083461AB130
:103BA000104608F0C3FF83445E450ED259F8280042
:103BB000002800F08F8008F0B9FF86B254F8280082
:103BC00018B108F0B3FF304486B208F10308C245CB
:103BD00000F0828059F828000028DBD154F8282012
:103BE000002AF2D08346DBE7794808F09FFF841C67
:103BF0003444764B7A4A0093A4B2082138462346CF
:103C0000FFF766FBE21C774992B23846FFF75EFA8F
:103C1000BB68D3F80C90B9F1000F51D000252E46A7
:103C2000A8460FE0A047049804ACC0B108F07EFF9E
:103C3000804506D22068002845D008F077FF1FFA9B
:103C400080F8103599F80020D9F80440304604A9CE
:103C50000136002AE6D160592C440028E6D1012E15
:103C60002ED0614ADFF878B10021384608F1020A07
:103C7000FFF7B0FB00251FFA8AFA13E09847049E6D
:103C800004ACEEB108215A46384653460096FFF779
:103C90001FFB616808F1050292B23846A9B1FFF72F
:103CA00015FA013599F80020D9F804302C0104A93F
:103CB0002846002AE2D11E5903EB0514002EE1D15B
:103CC00009B0BDE8F08F8046BBE74849386900F08D
:103CD000A1F8E6E7064671E73D4808F027FF023005
:103CE0000644B6B2394B3E4A009306F10309334607
:103CF000082138461FFA89F9FFF7EAFA39494A4696
:103D00003846FFF7E3F9039B06F1020A2B445FFAFA
:103D10008AFA04EB8308AAF1020A2EE02C48344AFE
:103D2000CDE9000138460821FFF7D2FA6068002883
:103D300043D008F0FBFEC5B2206800283BD008F055
:103D4000F5FE5FFA80FB224808F0F0FEAAEB0505BD
:103D5000A5EB0B02101A10F0FF0230D1254938698B
:103D60003A2200F057F8A168B1B14A463846FFF749
:103D7000ADF90C3444453FF44BAFD4E9001383B1A3
:103D80000029CBD100930821154A33463846FFF766
:103D90009FFAA1680029E8D11449386900F03AF87F
:103DA000E7E70029DFD000910D4A33460821384665
:103DB000FFF78EFAD7E78346C5E70546BCE70E490D
:103DC000386900F027F8C9E78046C8E678F70000B0
:103DD000DCF800006CF7000098F400009CF3000091
:103DE000A8F30000B0F30000C4F300005CF2000090
:103DF00094F400006CEA0000E4F20000826842B132
:103E000010B5044643690168006998470023A36020
:103E100010BD70470EB400B582B0039921B104AB58
:103E200001AA019300F0BCF802B05DF804EB03B006
:103E3000704700BF2DE9F04F0F4683B09742DDF881
:103E400030A00D99154606469846C0F0A4803B4622
:103E50004FF00109B3FBF5F39D4209F10109F9D9CE
:103E6000C14538BFC14611F00103B268009302D1C9
:103E7000BAF1000F6DD13368501CB8F1010F4FF04B
:103E8000010406D908F1FF38B8F1010F05FB04F46D
:103E9000F8D8B7FBF4FC654505D805FB04F4B7FB7F
:103EA000F4FC6545F9D9DFF8F4B04FF00D0809E0EE
:103EB000AC42B4FBF5F318D3B2681C463368B7FBC9
:103EC000F4FC501C1BF80C100A2904FB1C7725D0AD
:103ED000B0609954D6E901329A42E9D33046FFF7EF
:103EE0008DFFB4FBF5F3AC42E6D2009B9BB1BAF177
:103EF000000F10D02024D1450AF1FF3A0BD2B3684D
:103F00003268591CB160D454D6E901329A4219D2B0
:103F1000BAF1000FEFD103B0BDE8F08FB06003F845
:103F20000280D6E901329A4202F1010001D23368DF
:103F3000CEE730460191FFF761FFB268336801991F
:103F4000501CC5E73046FFF759FFBAF1000FD2D138
:103F5000E1E78B0719D42024D145336802F1010031
:103F60008BD2B0609C54D6E901329A420AF1FF3AF2
:103F700003D2BAF1000FEFD17DE73046FFF73EFFE5
:103F8000B268BAF1000FE7D175E7B8F1000F0CBFC6
:103F900030242024E0E74FF0010961E7ECF800004D
:103FA000002900F078822DE9F04FDFF88C950D782C
:103FB00085B0064690460C464FF00D0A10E00A2DDB
:103FC000B36800F0C8803268591CB160D554D6E996
:103FD00001329A4280F0A7802578002D00F0AA8057
:103FE0000134002D00F0A680252DE8D121460027C0
:103FF00011F8012B2D2A00F08480302A00F08580F2
:104000002B2A75D02A2A00F0B580A2F13003092BA3
:104010004FF000050DD805EB850502EB45056278EC
:10402000A2F13003092B0C46A5F1300501F1010185
:10403000F1D92E2A214600F0A780002302F0FB00D0
:10404000682801F1010405D114F8012B02F0FB01ED
:104050006829F9D0252A5CD0583AD1B22029BBD89A
:10406000202AB9D801A151F822F000BF2542000052
:10407000D93F0000D93F0000D93F0000D93F0000E0
:10408000D93F0000D93F0000D93F0000D93F0000D0
:10409000D93F0000D93F000043410000B741000074
:1040A000D93F0000D93F0000D93F0000D93F0000B0
:1040B000B7410000D93F0000D93F0000D93F0000C0
:1040C000D93F0000D93F0000D93F00003F42000027
:1040D000D93F0000D93F0000C9420000D93F00008D
:1040E000C1420000D93F0000D93F00002542000036
:1040F00047F004070C46214611F8012B2D2A7FF4C6
:104100007CAF47F001070C46F5E747F002070C4685
:10411000F1E7B3683168581CB060CA54D6E901327F
:104120009A42FFF459AF3046FFF768FE2578002D1C
:104130007FF456AF337B002B40F0258105B0BDE8FE
:10414000F08FD8F800301A1DC8F800201D78B36829
:104150000A2D7FF438AF3268591CB16002F803A011
:10416000D6E901239342FFF42EAF3046FFF746FE17
:10417000B36828E7D8F800301A1DC8F80020627824
:104180001D682E2A7FF459AF4A78A2F13003092B1B
:1041900001F101014FF000033FF650AF03EB830341
:1041A00002EB430311F8012FA2F130000928A3F11B
:1041B0003003F3D942E7D8F80020111DC8F80010E9
:1041C000D2F800B08BEAEB72A2EBEB72092A40F353
:1041D000AE81DFF868C3012011466329ACFB02E21F
:1041E00000F101004FEAD202F6DC9842024638BFE5
:1041F0001A460292002D40F0CC800025BBF1000F42
:10420000C0F26B817A0700F17B8107F00302022A7A
:1042100000F04B81CDE9005759460A223046FFF79E
:1042200009FED9E6D8F800101022081DC8F80000D1
:1042300009683046CDE90057FFF7FCFDCCE6D8F819
:1042400000301A1DC8F800201F68B3683268581C77
:104250003021B060D154D6E90123934280F0F3803D
:10426000591C3268B1607821D154D6E901329A42A2
:1042700080F0E4800F2F03D93B461B090F2BFCD89D
:104280004FF0805506E00F2D4FEA15137FF6A4AED0
:10429000B2681D46B7FBF5F319F803B0BBF10A0F7E
:1042A00005FB137761D03368511CB16003F802B08D
:1042B000D6E901329A42E6D33046FFF79FFDE2E7A6
:1042C000D8F800100A22B0E7D8F800301A1DC8F854
:1042D000002017F00107D3F800B07ED1BBF1000F2A
:1042E00003D0584608F022FC0746BD4215D92022CB
:1042F00001E0BD4211D0B1683368481CB0605A5427
:10430000D6E90130984205F1FF35F2D33046FFF788
:1043100075FDBD424FF02002EDD19BF80050002DFD
:104320003FF45AAEB0680A2D034610D03268591CCB
:10433000B160D554D6E90130984280F0AD801BF8C9
:10434000015F002D3FF448AE0A2D0346EED13268DE
:104350000133B36002F800A0D6E901239342E5D30C
:104360003046FFF74BFDB368E0E73368511CB1609E
:1043700003F802A0D6E901329A4294D33046FFF7FF
:104380003DFDB2688FE7304605B0BDE8F04FFFF75E
:1043900035BDBBF1000F5BDB7A0759D4B80702D5F6
:1043A000002B3FF42BAFF9073FF528AF002D3FF46A
:1043B00024AF20220299A942BFF420AFB168481C63
:1043C000B06030684254D6E90101814205F1FF3501
:1043D00080F09C80002DEDD10FE79BF80030002B82
:1043E00000F0A780B0685F46CBF101020A2B0146BE
:1043F00002EB070B3DD0481CB06030684354D6E94F
:104400000130984226D217F8013F002BEED15D45CE
:104410007FF6E2AD202702E05D453FF4DDADB268F6
:104420003368511CB1609F54D6E901329A4205F1BC
:10443000FF35F1D33046FFF7E1FCEDE73046FFF7FB
:10444000DDFCB26816E73046FFF7D8FCB36807E733
:10445000013DA3E730460292FFF7D0FC17F8013F79
:10446000002BD4D0B068029A0A2B014602EB070B4E
:10447000C1D10131B160316801F800A0D6E9010174
:104480008142B8D33046CDE90232FFF7B7FCDDE90F
:104490000232B168AFE770473046FFF7AFFC1BF858
:1044A000015F002D7FF43EAF96E5002B7FF4B2AEA6
:1044B0008DB130220299A942BFF4ACAEB168481C5C
:1044C000B06030684254D6E90101814205F1FF3500
:1044D00026D2002DEED100259CE6B1683268481C3A
:1044E000B060CBF1000B2D205054D6E90121914250
:1044F000FFF48BAE30460393FFF780FC039B84E60A
:10450000B1683268481CB0602B20EDE73046039359
:10451000FFF774FC039B2022002D7FF44BAF6CE669
:1045200030460393FFF76AFC039B3022D1E701205A
:104530005BE69B466BE700BFECF80000CDCCCCCC33
:104540002DE9F041058B0331043D4E198046B6FB41
:10455000F5F6FEF7DDFCA0B3F6B24FF48073013E32
:1045600004468380C580C0F800802BD00346002518
:1045700008E06279AE4202F1010262713860C0F86F
:1045800000801FD040461F46FEF7C2FC013503469F
:104590000028EED167792668791E16D022460133AD
:1045A00099421268FBD1D2F8008057B1002501E092
:1045B00034463668214640460135FEF7CFFCAF420F
:1045C000F6D800242046BDE8F08121463046FEF7AB
:1045D000C5FCF6E701210430FEF708BC2DE9F041E7
:1045E000012104460430FEF70DFC10F0FF0301D05A
:1045F000BDE8F08167792668791E15D0224601331F
:1046000099421268FBD1D2F80080002FF0D000252B
:1046100001E034463668214640460135FEF79EFCEF
:10462000AF42F6D8BDE8F08121463046BDE8F04102
:10463000FEF794BC2DE9F8438846C788417907FB0B
:1046400001F1043902EB030C1E1D6145154638BF0C
:10465000CD1AB7420446B6FBF7F207FB126002D848
:10466000013A2468FCD13E1AAE4228BF2E469DB1C5
:104670004FF000090430AD1B324608EB090120441D
:1046800008F03AF9AF42B14424683E464FF00000CA
:1046900028BF2E46002DEDD1BDE8F8832DE9F84363
:1046A0000446C788407907FB00F0043802EB030C8E
:1046B0001E1D6045154638BFC51AB7428846B6FB71
:1046C000F7F107FB116202D801392468FCD1BE1A48
:1046D000AE4228BF2E469DB14FF00009111DAD1B03
:1046E0003246214408EB090008F006F9AF42B14414
:1046F00024683E464FF0000228BF2E46002DEDD123
:10470000BDE8F8832DE9F04F8368D3F84831C3F34F
:1047100040059B078DB066D401295DD8354C364BDA
:1047200036491B1B9A08A1FB02211B2B0B9150D968
:10473000DFF8D8B08146AA462BE0961B0020FEF792
:1047400063FA94F810E06369642505FB06FC5A4699
:1047500005FB08F50821B5FBF7F548460A95BCFBB3
:10476000F7FCBEF1000F27D1254D0795CDE901C615
:104770000A9D0495099DCDF814800095069703972E
:10478000FEF728FE0B9B0AF1010A534504F11C04B5
:104790001FD9D4E90272236809920020D3F8088057
:1047A000FEF72AFA23681E685A689642C5D9A3689C
:1047B000013313449E1BC1E7099A0092114A0397E3
:1047C000CDE90672CDE90458CDE901C65A46082163
:1047D000D6E70DB0BDE8F08F0B4A02210DB0BDE861
:1047E000F04FFEF7F7BD002211460DB0BDE8F04FC7
:1047F000FFF794B964FE000064FE0000254992248E
:1048000084F9000090F90000BCF1000008F90000F4
:1048100003689868704700BF036800229A60704779
:1048200010B568B90E4CA368012262703BB1D3E9A0
:1048300000230020A2609847A368002BF7D110BD89
:104840000128FCD1064C2369A070002BF7D0D3E9D6
:1048500000230120226198472369002BF7D110BD66
:10486000C407002010B50D4C237882B043B18520D9
:104870000B4BD3F800340BB10123A37002B010BD71
:1048800008486360A3602361E36000F005F90190CC
:1048900000F00EF9012301982370E9E7C407002016
:1048A000000001402148000038B5154DAB780446A2
:1048B00073B110B14368012098470020FEF79CF9BE
:1048C000EB680133EB600020BDE83840FEF79CB98F
:1048D00003F0FF00FEF790F964B12A6942B19442F7
:1048E00008D0134601E09C4204D01B68002BFAD18B
:1048F00022602C61EB68002BE2D100F0EFF8DFE7DB
:10490000C407002038B5154D6B78044673B110B15B
:104910004368002098470020FEF76EF96B6801336A
:104920006B600020BDE83840FEF76EB903F0FF0071
:10493000FEF762F964B1AA6842B1944208D0134606
:1049400001E09C4204D01B68002BFAD12260AC60CD
:104950006B68002BE2D100F0D3F8DFE7C40700203A
:104960004FF08043D3F80C0400F00110A0F10110C7
:10497000B0FA80F04009704710B5074C23784BB966
:10498000064B002808BF184600F08AFB08B901232F
:10499000237010BD852010BDD807002014FA000038
:1049A00030B50A4B0A4C53F8213054F821100278E4
:1049B00085B0D0E901548DF80020C26801958DF8CA
:1049C000084003926846984705B030BDE4070020D0
:1049D000DC07002030B50A4B0A4C53F8213054F85C
:1049E0002110027885B0D0E901548DF80020C2680A
:1049F00001958DF8084003926846984705B030BD90
:104A0000E4070020DC070020F0B5184B067843F8D7
:104A10002620174B0446487F98551546154A8E4662
:104A2000096942F8261022789F5CBEE80F0089B021
:104A3000EC46ACE80F009EE80F008CE80F000496EF
:104A40004FB1002D0C4A694608BF2A46201D00F0D0
:104A500087FF09B0F0BD002D084A694608BF2A4605
:104A600004F10C0000F0E0FC09B0F0BDE407002008
:104A7000EC070020DC070020A1490000D549000018
:104A8000034653E8000F00EA010243E8002C9CF0C3
:104A9000000FF6D1704700BF044A137923B90121F2
:104AA000106091801846704785207047F0070020FD
:104AB000084B1A68D20704D4C02283F800230122CD
:104AC0001A60054A4FF080410123C1F81835137070
:104AD000704700BF00E100E0F80700204FF080437E
:104AE0000022C3F8042182B0D3F804210192019876
:104AF00002210122C3F804139A6002B0704700BF7C
:104B00004FF080430022C3F8002182B0D3F8002187
:104B1000019201990122C3F804231A6002B0704780
:104B200010B54FF0804382B0D3F8002162B100216C
:104B3000164AC3F80011D3F80011507900910121F1
:104B4000009CC3F80813A8B14FF08043D3F80421A8
:104B5000CAB10022C3F80421D3F804210192022132
:104B60000A4A0198C3F808131368012002B0BDE88F
:104B7000104018471368517198474FF08043D3F89D
:104B80000421002AE5D102B010BD00BFF0070020CB
:104B90002DE9F047002384B0CDE902331C4AD2F856
:104BA0000011012900F030821E46194BD3F8042170
:104BB000012A00F01A82164BD3F80821012A00F0CE
:104BC0000582134BD3F80C21012A00F0F081104B21
:104BD000D3F81021012A00F0DB810D4BD3F814210A
:104BE000012A00F0C1810A4BD3F81821012A00F0F4
:104BF000AC81074BD3F81C21012A0BD0044BD3F80E
:104C00007C21012A00F0218256BB04B0BDE8F08768
:104C100000600040D3F804231206EFD50022C3F849
:104C20001C21D3F81C110091D3F87C1100980129A4
:104C300046F0800614D1C3F87C21D3F87C3101936F
:104C40004FF0A042019BD2F82015CF4B0291C2F841
:104C50002015D3F820250392C3F8202546F00046FE
:104C6000CA4F00240125A30003F18043354203F518
:104C7000C0434FEA45050BD0D3F8100557F8242060
:104C8000D3F81015C0F30520C1F3014102B19047DC
:104C90000134082CE7D1002EB7DABC4CBA4E0125FE
:104CA0004FF0A04794F96000431C48D0C0F3C20203
:104CB00002F110030DEB030200F0070312F8082CB9
:104CC00005FA03F31A42C1B200F03F0037D01F28A3
:104CD00000F22B8102464FF0A04909EB820305FA4E
:104CE00002F2D3F800C7D3F800E72EF4403EC3F831
:104CF00000E704EB000ECCF3014C9EF930E0D3F852
:104D000000A754F82E80BCF1020F0CBF4FF4403EB8
:104D10004FF4003E4EEA0A0EC3F800E7C9F820251A
:104D2000B8F1000F0BD08909032900F08281BCF192
:104D3000020F00F07B81BCF1030F00F0A68194F913
:104D40006100411C48D0C0F3C20202F110030DEB18
:104D5000030200F0070312F8082C05FA03F31A42C5
:104D6000C1B200F03F0037D01F2800F2E2800246B7
:104D70004FF0A04909EB820305FA02F2D3F800C70D
:104D8000D3F800E72EF4403EC3F800E704EB000E32
:104D9000CCF3014C9EF930E0D3F800A754F82E80F4
:104DA000BCF1020F0CBF4FF4403E4FF4003E4EEA00
:104DB0000A0EC3F800E7C9F82025B8F1000F0BD0A0
:104DC0008909032900F03A81BCF1020F00F0338118
:104DD000BCF1030F00F05D8194F96200421C48D0E1
:104DE000C0F3C20202F110030DEB030200F007034F
:104DF00012F8082C05FA03F31A42C1B200F03F0082
:104E000037D01F2800F2998002464FF0A04909EBE5
:104E1000820305FA02F2D3F800C7D3F800E72EF4B4
:104E2000403EC3F800E704EB000ECCF3014C9EF9C2
:104E300030E0D3F800A754F82E80BCF1020F0CBF6D
:104E40004FF4403E4FF4003E4EEA0A0EC3F800E72E
:104E5000C9F82025B8F1000F0BD08909032900F00B
:104E6000F280BCF1020F00F0EB80BCF1030F00F008
:104E7000088194F96300431C47D0C0F3C20202F1D9
:104E800010030DEB030200F0070312F8082C05FADB
:104E900003F31A42C1B200F03F0036D01F2850D8A9
:104EA00002464FF0A04909EB820305FA02F2D3F85B
:104EB00000C7D3F800E72EF4403EC3F800E704EB48
:104EC000000ECCF3014C9EF930E0D3F800A754F863
:104ED0002E80BCF1020F0CBF4FF4403E4FF4003E59
:104EE0004EEA0A0EC3F800E7C9F82025B8F1000F12
:104EF0000BD08909032900F09780BCF1020F00F064
:104F00009080BCF1030F00F0B880D7F820350293F1
:104F1000C7F82035D6F8202503921343C6F820257C
:104F20007FF4C0AE04B0BDE8F08701F01F02B146C7
:104F3000D3E601F01F02B1461CE701F01F02B146A3
:104F400065E701F01F02B146ADE7D3F8042351062F
:104F50007FF54FAE0022C3F81821D3F81831009323
:104F6000009B46F0400644E6D3F8042390067FF504
:104F70003AAE0022C3F81421D3F814310093009BF9
:104F800046F020062FE600BF00030050FC0700207B
:104F9000D3F80423D4067FF520AE0022C3F81021F5
:104FA000D3F810310093009B46F0100615E6D3F8B5
:104FB000042315077FF50BAE0022C3F80C21D3F8AC
:104FC0000C310093009B46F0080600E6D3F804235A
:104FD00057077FF5F6AD0022C3F80821D3F8083152
:104FE0000093009B46F00406EBE5D3F804239207F8
:104FF0007FF5E1AD0022C3F80421D3F8043100931A
:10500000009B46F00206D6E5D2F8046316F00106CE
:105010003FF4CBADC2F80031D2F800310093009BD1
:10502000C3E501297FF471AFC0476EE701297FF422
:1050300086AEC04783E601297FF4CEAEC047CBE6FB
:1050400001297FF416AFC04713E70022C3F87C2183
:10505000D3F87C3101934FF0A042019BD2F8201588
:105060000E4B0291C2F82015D3F820250392C3F805
:105070002025002E3FF411AEF0E502297FF445AF64
:10508000D2E702297FF4F5AEDDE702297FF457AEBF
:10509000CFE702297FF4A0AED0E700BF00030050A5
:1050A0000E4A1378C3B903780D494FF0804CC3F30F
:1050B0004003CCF88035037803F00103CCF8783551
:1050C0000B68DB0704D4C02381F8003301230B6095
:1050D000012313700020704785207047740800205A
:1050E00000E100E010B54FF0804386B0D3F80443F0
:1050F000620703D5D3F80821002A62D1A30605D59B
:105100004FF08043D3F81421002A4FD1600605D513
:105110004FF08043D3F81821002A3BD1210604D553
:105120004FF08043D3F81C214ABBE20504D54FF071
:105130008043D3F82021B2B9A30512D54FF08043A4
:10514000D3F824216AB10022C3F82421D3F8242102
:10515000214B0592059A1B68022006B0BDE810405D
:10516000184706B010BD0022C3F820211A4AD3F810
:105170002031049301201368049A9847DCE700204B
:10518000C3F81C01144AD3F81C3103931368039A23
:105190009847CAE70022C3F81821104AD3F81831FB
:1051A000029301201368029A9847B7E70020C3F8DA
:1051B00014010A4AD3F8143101931368019A9847ED
:1051C000A4E70022C3F80821054AD3F80831009368
:1051D0001368009A984791E7700800206C08002037
:1051E0006808002008B5FFF77DFFBDE80840FFF71D
:1051F00097BC00BF014B1B68184700BF7808002010
:1052000038B50C4B984213D100200D46FDF7F4FC45
:10521000094B1C7924B10020FDF7F6FC112038BDA4
:10522000012220461D601A71FDF7EEFC204638BDB4
:10523000002038BD0020004078080020034B984231
:1052400003D1034B00221A601A71704700200040FE
:10525000780800200000000010B5714AD2F804332D
:1052600099058AB068D5D2F82431002B64D0002388
:10527000C2F82431D2F8243101934FF40171694B03
:105280000198C2F8081393F8291009B90121516057
:10529000634902228DF81820D1F88024C1F88024B7
:1052A0009FED5D7B9969D8680790CDE9081283ED81
:1052B000067BD3E9001206A89047594AD2F81C3160
:1052C000C3B1584B5869196A88426AD993F82810B3
:1052D00001F0FF00002964D1C2F81C01D2F81C11B2
:1052E000039103999C68186A196A205C013119625C
:1052F000C2F81C054A4AD2F84431DBB10021494BBF
:10530000C2F84411D2F8440193F829100090009893
:1053100009B1012111609A6962B1D8685C6A002103
:105320000122CDE9070499618DF8182006A8D3E978
:10533000001290470AB010BD394AD2F804335B0717
:10534000BBD5D2F80831002BB7D0364B996900296C
:105350003ED00021C2F80811D2F808110491049936
:10536000D868596AD2F8182542545A6A99690132A4
:105370005A625A6A8A42A0D1DA691968002A30D082
:10538000D8689A611A695C6A0790DA600020012285
:105390000894D86158625C688DF8182006A8A04768
:1053A0008BE71F4A0020C2F81C01D2F81C21029290
:1053B000029A5A69002A9DD0D3E901215C698DF8CF
:1053C0001800CDE907145861196806A8904791E7BD
:1053D000C2F80811D2F8080105900598D2F81825EE
:1053E000C7E793F8292012B90D4A012050600C4AF2
:1053F0004FF40170C2F80803586ADA6800249C610F
:105400000124CDE907205B688DF8184006A898476D
:1054100053E700BFAFF30080000000000000000071
:1054200000200040800800202DE9F041714E90F8E6
:1054300004802C2303FB086382B093F82A30002BEE
:1054400040F09B8005460C4600686B491746FFF705
:10545000D7FE002840F08D802368591C19D01F2BDF
:105460004FF001028ABF65494FF0A04103F01F03CE
:1054700002FA03F3C1F8083523681F2B86BF03F037
:105480001F035E4A4FF0A04203F5E073032142F888
:10549000231063685A1C0BD01F2B86BF03F01F0319
:1054A000564A4FF0A04203F5E073002142F8231062
:1054B0002B68A269C3F82425227D637D13432A68E3
:1054C000C2F86C35D4E900122B68C3F81425C3F870
:1054D0000C15237D012B59D02C2303FB08F3F21864
:1054E00057602269F2508FB32A68237F0021C2F8E7
:1054F0001C11D2F81C210092009A2A68C2F84411AB
:10550000D2F844210192019A2A683D49C2F8041355
:105510002A6842F307315B010029DBB24FEA1232FD
:105520002FDB01F1604101F5614181F800332B6807
:1055300043F30732002A4FEA133108DB314C52099A
:1055400001F01F0101238B4044F822302B68042214
:10555000C3F800252C2303FB086601220023C6E9BB
:10556000063386F82930736186F82A2002B0BDE838
:10557000F081112002B0BDE8F081082002B0BDE842
:10558000F081214902F00F028B54D0E7A368591C27
:105590000BD01F2B86BF03F01F0318494FF0A0410B
:1055A00003F5E073002241F82320E3685A1C1AD067
:1055B0001F2B8ABF11494FF0A04103F01F030122A6
:1055C00002FA03F3C1F80835E3681F2B88BF03F024
:1055D0001F0303F5E0738CBF08494FF0A04103227D
:1055E00041F82320E3682A68A168C2F80835C2F8A8
:1055F000101571E780080020595200000003005088
:105600008000020000E100E014ED00E0F8B503685E
:1056100007793C4C0022C3F800252C2303FB0743E9
:105620005B68BBB10368384AC3F80823036843F3D7
:105630000732002A4FEA13310DDB5209334D01F0D6
:105640001F01203201238B4045F82230BFF34F8FDA
:10565000BFF36F8F0368D3F80C65D3F81455D3F8F4
:105660000825D3F810154FF0FF3CC3F814C5C3F854
:105670000CC503686645C3F808C5C3F810C50CD04F
:105680001F2E86BF06F01F06214B4FF0A04306F5E4
:10569000E0764FF0020C43F826C06E1C0BD01F2D95
:1056A00086BF05F01F051A4B4FF0A04305F5E075C6
:1056B000022643F825604D1C0BD01F2986BF01F040
:1056C0001F01134B4FF0A04301F5E071022543F891
:1056D0002150531C0BD01F2A86BF02F01F020C4B17
:1056E0004FF0A04302F5E072022143F82210006857
:1056F000FFF7A4FD2C2303FB0744002384F82A3082
:105700006360F8BD800800208402020000E100E030
:10571000000300502DE9F041334C90F804E02C23B5
:1057200003FB0E438446586984B000284ED15A6169
:105730009960186283F82800DCF80020C2F81C0188
:10574000D2F81C210292029ADCF80020012191601B
:10575000DCF800209D68C2F81C01D2F81C110191F0
:105760000199196A6E5C196A01311962C2F81C65E7
:105770005A6812B104B0BDE8F0815E691A6ADCF8BB
:10578000001096421BD9074602E093F828200ABB76
:10579000D1F81C21002AF8D0C1F81C71D1F81C21C5
:1057A0000392039A1A6A15F802801A6A01321A6281
:1057B000C1F81C851A6A9642EAD8DCF80010D1F8C4
:1057C0001C31002BFBD00123CB6004E0112004B07E
:1057D000BDE8F0810F202C2303FB0E4400236361FE
:1057E00004B0BDE8F08100BF800800200000000088
:1057F000F0B5594BD3F824218BB0002A58D00022A1
:10580000C3F82421D3F82411049102228DF8182022
:105810000499524AD3F88014C3F880149FED4C7B4E
:105820000991D3F83C45D06882ED067BCDE90704A9
:10583000D2E9001306A89847474BD3F8442152B148
:105840000021464AC3F84411D3F8440191690390FA
:105850000398002960D1404BD3F8202162B1002089
:10586000C3F82001D3F82021029201213B4A029C77
:10587000D9605169002942D1374BD3F85821AAB1D8
:105880000020C3F85801D3F85811344A0191019906
:10589000516959B1D3F84C458DF81800D2E901315E
:1058A0005061CDE9071406A8116898470BB0F0BD08
:1058B000D3F810110029BFD0C3F81021D3F810116C
:1058C000264C05910599A169D3F83C058842B3D1CE
:1058D000E569E768A561D4E900167DB3E261D3F814
:1058E000002222F02002C3F800222369E360012392
:1058F000CDE907708DF8183006A8B0479CE7D3F8BB
:105900004C458DF81800D2E901315061CDE90714FA
:1059100006A811689847AFE79FED0D7BD3F83C458B
:10592000D0684FF0010CCDE9070482ED067BD2E987
:1059300000138DF818C006A898478CE70123CDE91D
:1059400007708DF8183006A8B04775E7AFF30080F0
:10595000000000000000000000200040B00800200F
:105960002DE9F04307797E4E07EBC70306EB83036F
:1059700087B093F82030002B40F0B48004460D46E9
:10598000006878499046FFF73BFC002840F0A6806D
:105990002B68591C4FEAC70919D01F2B4FF0010281
:1059A0008ABF71494FF0A04103F01F0302FA03F3CD
:1059B000C1F808352B681F2B86BF03F01F036A4A06
:1059C0004FF0A04203F5E073032142F823106B6807
:1059D0005A1C0BD01F2B86BF03F01F03624A4FF0E7
:1059E000A04203F5E073002142F823102368AA695E
:1059F000C3F824252B7D6A7D1A432368C3F86C25E0
:105A0000D5E900312268C2F80C35C2F814152B7D97
:105A1000012B70D009EB070206EB8203C3F8048068
:105A20002B6946F82230B8F1000F46D021682B7F51
:105A30000022C1F81021D1F81011019101992168BB
:105A4000C1F82021D1F82011029102992168C1F8F2
:105A50002421D1F82411039103992168C1F844212C
:105A6000D1F84411049104992168C1F85821D1F862
:105A700058210592059A22683C49C2F8041322680D
:105A800042F307315B010029DBB24FEA12322DDB12
:105A900001F1604101F5614181F80033226842F370
:105AA0000733002B4FEA123108DB314D5B0901F05F
:105AB0001F0101228A4045F823202268B94406EBE1
:105AC00089060121002386F820100821C2F800155C
:105AD000C6E90633736107B0BDE8F083112007B053
:105AE000BDE8F083082007B0BDE8F083214902F04B
:105AF0000F028B54D2E7AB68591C0BD01F2B86BF0B
:105B000003F01F0318494FF0A04103F5E073002292
:105B100041F82320EB685A1C1AD01F2B8ABF124968
:105B20004FF0A04103F01F03012202FA03F3C1F872
:105B30000835EB681F2B88BF03F01F0303F5E073E4
:105B40008CBF09494FF0A041032241F82320EB68A4
:105B50002268A968C2F80835C2F810155AE700BFD4
:105B6000B0080020F157000000030050100342006D
:105B700000E100E014ED00E02DE9F0410579564C1C
:105B800005EBC50304EB830301465B68006882B044
:105B9000EE00C3B1514BC0F808330B6843F3073232
:105BA000002A4FEA13330EDB5209DFF838C12032E6
:105BB000012703F01F0307FA03F34CF82230BFF369
:105BC0004F8FBFF36F8F731904EB83039A69D0F87B
:105BD000003223F02003C0F8003242B10023C0F8A5
:105BE0004431D0F844310093009B012343600023EB
:105BF000C0F85831D0F858310193019B7319012234
:105C000004EB8303C2609A69D0F85831002BFBD0B3
:105C10001AB1D0F84431002BF6D00023C0F800357B
:105C20000B684FF0FF38D3F80CE5D3F814C5D3F860
:105C30000825D3F81075C3F80C85C3F814850B68D4
:105C4000C645C3F80885C3F810850CD0BEF11F0FF8
:105C500086BF0EF01F0E22494FF0A0410EF5E07EE8
:105C6000022341F82E30BCF1FF3F0CD0BCF11F0FD6
:105C700086BF0CF01F0C1A494FF0A0410CF5E07CD8
:105C8000022341F82C30791C0BD01F2F86BF07F060
:105C90001F0713494FF0A04107F5E077022341F8B1
:105CA0002730531C0BD01F2A86BF02F01F020C495D
:105CB0004FF0A04102F5E072022341F82230FFF7D5
:105CC000BDFA2E4404EB8604002384F82030636080
:105CD00002B0BDE8F08100BFB00800201003420010
:105CE0000003005000E100E001F0604CBCF1005FF7
:105CF00030D170B590F804E0264C0EEBCE0C04EBDE
:105D00008C0C0346DCF8140082B04FEACE05002864
:105D10003AD1CCF81420CCF808101A68C2F8200147
:105D2000D2F820210192019A1A68C2F85801D2F8DB
:105D300058210092009A1A68DCF81460C2F84415E1
:105D4000C2F848651A6801219160DCF804201AB194
:105D500002B070BD102070471A6800E0B8B9D2F8E0
:105D60002011D2F858010029F8D080B90121D16062
:105D70001B68D3F85821002AFBD0754404EB850337
:105D800000225A6102B070BD112002B070BD0F2018
:105D9000F3E700BFB008002030B44C68A34208D934
:105DA000002545600968016093420CD0002030BC9A
:105DB000704743600D6805600868E41A1844934210
:105DC0004C600860F2D1201E18BF012030BC704723
:105DD00010B4D1E90034A24228BF2246C0E9003203
:105DE000D1E90030801A1344C1E90030003818BFEF
:105DF00001205DF8044B70474B689A4228BF1A4651
:105E000062B10B68C0E90032D1E90030801A134456
:105E1000C1E90030101E18BF012070471346F1E79A
:105E200010B50748074A0849126882B000230124C8
:105E30000370019401A80B70904702B010BD00BF21
:105E4000D4080020D80A0020DC0A0020704700BFD8
:105E500000B583B00D4B0E4900228DF80420D3F815
:105E60002025ADF80620D3F8C0040A4A0968136853
:105E700000280CBF4FF480704FF00120034301A8AD
:105E80001360884703B05DF804FB00BF0070024058
:105E9000D80A0020B4090020F8B54B680B4F9A428D
:105EA00028BF1A4615460C4606460968384606F0CD
:105EB00023FDC6E90075D4E90030401B2B44C4E93A
:105EC0000030003818BF0120F8BD00BFE00A0020F4
:105ED00070B54B689A4228BF1A460D4614460646CE
:105EE00062B91346C6E90034D5E90032121B2344D7
:105EF000C5E90032201E18BF012070BD09680248A4
:105F000006F0FAFC004BEDE7E00A00204FF080536A
:105F1000D3F83031082B03D1164B0022C3F81C2CC8
:105F2000154B16499A7B0020032A08700CD010B537
:105F30001C6882B06CB10F4B0122DA64BFF36F8F23
:105F4000BFF34F8F02B010BD0D486FF48031FEF7E4
:105F500097BD6FF480310A48FEF792FD094BADF80A
:105F6000064006221B688DF8042001A8984702B05D
:105F700010BD00BF00700240B8090020D508002005
:105F800044090020D80A002010B51E4BD3F8004465
:105F9000C3F8004482B0BFF36F8FBFF34F8FBFF3DE
:105FA0006F8FBFF34F8FE10508D5174B174A1B685A
:105FB00002200121019001A811709847A20508D57F
:105FC000114B124A1B6803200021019001A8117097
:105FD0009847630514D50D4B1A788AB1094A0121F7
:105FE00000201870C2F808159165BFF36F8FBFF3DA
:105FF0004F8F054B04221B6801920DEB020098475E
:1060000002B010BD00700240D80A0020D408002061
:1060100030B53C4B3C491C780A68200683B004F03C
:106020000F0316D41033012000FA03F31A430A6059
:10603000364A126813420AD1354B8DF80700062202
:106040001B688DF804208DF8064001A8984703B01E
:1060500030BD01259D402A430A602E491AB231F80D
:10606000133003F1804303F51C331968E1B10021BB
:106070001960BFF36F8FBFF34F8F4FF08053802CA9
:10608000D3F8303121D0082B04BF234BC3F81C1C9C
:10609000224B00211970224B110103EB0212927B5B
:1060A000032A2AD05B5843B3184B1B682B40CED130
:1060B000174A8DF80640062112688DF804108DF8F5
:1060C000073001A8904703B030BD082B08BF124B22
:1060D000124A08BFC3F81C1C124B0021117093F820
:1060E0009E20032A03D0D3F89030002BDCD16FF030
:1060F00001010648FEF7C4FCD6E7E9430348FEF772
:10610000BFFCD1E7DC0A0020B409002044090020CC
:10611000D80A002058FA000000700240D50800207C
:10612000480A0020B80900202DE9F04FDFF818A236
:10613000DFF81892DAF80040D9F80030234089B02F
:1061400000F0938013F0012200F0928092FAA2F402
:10615000002C00F09280B4FA84F201239340DB43D8
:106160000F2A1546019317D8DFF8E4A10FFA82F839
:106170000AEB08164FEA081862F07F075AF8083051
:10618000B289716806A898477FB22C4605F0080BC3
:1061900038BB4AF8080024E0A2F1100B644B5FFA08
:1061A0008BF21BF0080B0392144603EB02164FFA16
:1061B00082F86CD115465F4A05F594734FF0000BD9
:1061C00052F82330B28971683768029306A8B8473D
:1061D000069A1AB1079A029B934266D8474600B9BD
:1061E00030604FF08053D3F83031082B03D1514B3E
:1061F0008222C3F81C2CD9F80030019A1340C9F848
:106200000030079AB3681344B3604B4B0121002F51
:106210001970069963DBBBF1000F6BD0454BAD00E5
:10622000C3F8A017C3F8A42728232B44DBB203F13B
:10623000804303F51C3301221A60BFF36F8FBFF355
:106240004F8F3E4A3E4B3B4913EA270338BF134664
:1062500033F8142002F1804202F51C3202E0D1F83A
:10626000003113B91368002BF9D009B0BDE8F08FE5
:1062700093FAA3F4002C7FF46EAF4FF010084FF0A8
:10628000FF332B4E01932546CDF80C8093E7294B25
:10629000D3F8C034D90349D53568B289716806A8E6
:1062A0000023A8474746254699E702240199B4737D
:1062B0005046FEF7E5FB039B8DF81630214B8DF819
:1062C000174006221B688DF8142005A89847DAF8B5
:1062D0000040D9F8003023407FF434AFC5E7BBF16C
:1062E000000F15D0134BAD00C3F8A016C3F8A426B9
:1062F00004239AE705EB85039B0003F1804303F534
:106300001C33AD00C3F80017C3F8042728238CE71B
:1063100005EB85039B0003F1804303F51C33AD00BF
:10632000C3F80016C3F8042604237EE7154649E7A0
:10633000B809002000700240D508002078FA00005B
:1063400058FA0000D80A002044090020B4090020AF
:10635000480A002010B54FF0805382B0D3F8303196
:10636000082B03D1164B0022C3F81C2C154B164CDE
:1063700093F83E200021032A217006D01B6B73B1D5
:1063800002B0BDE81040FFF7CFBE10486FF4002107
:10639000FEF776FB2378002BF2D002B010BD6FF42D
:1063A00000210A48FEF76CFB094B062103221B68FB
:1063B0008DF80410ADF8062001A89847EAE700BF61
:1063C00000700240B8090020D508002044090020D0
:1063D000D80A00204FF08053D3F83031082B03D176
:1063E000114B0022C3F81C2C104B114993F88E203E
:1063F0000020032A087002D0D3F8803003B1704720
:1064000000B56FF0807183B00A48FEF739FB0A4B84
:10641000062108221B688DF80410ADF8062001A89B
:10642000984703B05DF804FB00700240B8090020F3
:10643000D508002044090020D80A00204FF08053DE
:10644000D3F83031082B03D1144B0022C3F81C2C95
:10645000134B144993F81E210020032A087003D01F
:10646000D3F810312BB170470F486FF48071FEF7ED
:1064700007BB00B56FF4807183B00B48FEF700FBDB
:106480000A4B062188221B688DF80410ADF80620FF
:1064900001A8984703B05DF804FB00BF00700240FC
:1064A000B8090020D508002044090020D80A00209F
:1064B0004FF08053D3F83031082B03D10A4B002220
:1064C000C3F81C2C094B0A4993F89E200020032A8C
:1064D000087003D0D3F8903003B1704705486FF0CF
:1064E0000101FEF7CDBA00BF00700240B8090020DC
:1064F000D5080020440900204FF08053D3F83031F4
:10650000082B03D10A4B0022C3F81C2C094B0A4963
:1065100093F8AE200020032A087003D0D3F8A030EF
:1065200003B1704705486FF00201FEF7A9BA00BF3A
:1065300000700240B8090020D5080020440900205E
:106540004FF08053D3F83031082B03D10A4B00228F
:10655000C3F81C2C094B0A4993F8BE200020032ADB
:10656000087003D0D3F8B03003B1704705486FF01E
:106570000401FEF785BA00BF00700240B809002090
:10658000D5080020440900204FF08053D3F8303163
:10659000082B03D10A4B0022C3F81C2C094B0A49D3
:1065A00093F8CE200020032A087003D0D3F8C0301F
:1065B00003B1704705486FF00801FEF761BA00BFEC
:1065C00000700240B8090020D508002044090020CE
:1065D0004FF08053D3F83031082B03D10A4B0022FF
:1065E000C3F81C2C094B0A4993F8DE200020032A2B
:1065F000087003D0D3F8D03003B1704705486FF06E
:106600001001FEF73DBA00BF00700240B80900203B
:10661000D5080020440900204FF08053D3F83031D2
:10662000082B03D10A4B0022C3F81C2C094B0A4942
:1066300093F80E210020032A087003D0D3F800310C
:1066400003B1704705486FF08001FEF719BA00BF2B
:1066500000700240B8090020D5080020440900203D
:106660004FF08053D3F83031082B03D10A4B00226E
:10667000C3F81C2C094B0A4993F8EE200020032A8A
:10668000087003D0D3F8E03003B1704705486FF0CD
:106690002001FEF7F5B900BF00700240B8090020E4
:1066A000D5080020440900204FF08053D3F8303142
:1066B000082B03D10A4B0022C3F81C2C094B0A49B2
:1066C00093F8FE200020032A087003D0D3F8F0309E
:1066D00003B1704705486FF04001FEF7D1B900BF24
:1066E00000700240B8090020D508002044090020AD
:1066F00010B54FF0805382B0D3F83031082B03D15E
:10670000154B0022C3F81C2C144B154C9A7F00210A
:10671000032A217006D01B6973B102B0BDE8104096
:10672000FFF702BD0F486FF40031FEF7A9F9237897
:10673000002BF2D002B010BD6FF400310948FEF713
:106740009FF9094B062101221B688DF80410ADF852
:10675000062001A89847EAE700700240B809002027
:10676000D508002044090020D80A002010B54FF0B9
:10677000805382B0D3F83031082B03D1164B00225E
:10678000C3F81C2C154B164C93F84E200021032AFD
:10679000217006D01B6C73B102B0BDE81040FFF74A
:1067A000C3BC10486FF48011FEF76AF92378002B00
:1067B000F2D002B010BD6FF480110A48FEF760F904
:1067C000094B042206211B688DF80410ADF8062041
:1067D0000DEB02009847E9E700700240B80900207D
:1067E000D508002044090020D80A002010B54FF039
:1067F000805382B0D3F83031082B03D1164B0022DE
:10680000C3F81C2C154B164C93F85E200021032A6C
:10681000217006D01B6D73B102B0BDE81040FFF7C8
:1068200083BC10486FF40011FEF72AF92378002B7F
:10683000F2D002B010BD6FF400110A48FEF720F943
:10684000094B062105221B688DF80410ADF80620BF
:1068500001A89847EAE700BF00700240B80900208D
:10686000D508002044090020D80A002010B54FF0B8
:10687000805382B0D3F83031082B03D1154B00225E
:10688000C3F81C2C144B154C93F86E200021032ADE
:10689000217006D01B6E73B102B0BDE81040FFF747
:1068A00043BC0F486FF48001FEF7EAF82378002B11
:1068B000F2D002B010BD6FF480010948FEF7E0F895
:1068C000084A062312688DF80430ADF8063001A896
:1068D0009047EBE700700240B8090020D50800207F
:1068E00044090020D80A002010B54FF0805382B030
:1068F000D3F83031082B03D1164B0022C3F81C2CDF
:10690000154B164C93F87E200021032A217006D0E7
:106910001B6F73B102B0BDE81040FFF705BC104813
:106920006FF40001FEF7ACF82378002BF2D002B030
:1069300010BD6FF400010A48FEF7A2F8094B0621CA
:1069400007221B688DF80410ADF8062001A89847AF
:10695000EAE700BF00700240B8090020D508002017
:1069600044090020D80A002010B54FF0805382B0AF
:10697000D3F83031082B03D1164B0022C3F81C2C5E
:10698000154B164C93F82E200021032A217006D0B7
:106990001B6A73B102B0BDE81040FFF7C5BB1048D9
:1069A0006FF48021FEF76CF82378002BF2D002B050
:1069B00010BD6FF480210A48FEF762F8094B0621EA
:1069C00002221B688DF80410ADF8062001A8984734
:1069D000EAE700BF00700240B8090020D508002097
:1069E00044090020D80A00202DE9F04F524BD3F87B
:1069F0006C44C3F86C4483B0BFF36F8FBFF34F8F09
:106A0000DFF84C81FCB14D4D4D4E4E4FDFF84491B7
:106A100094FAA4F22968FAB1B2FA82F0012303FAD7
:106A200000FB0F28024624EA0B0424DDD9F80030CD
:106A3000A0F110024BEA01011BEA030F2960D2B258
:106A40000BD0002CE4D198F80030002B71D103B0AA
:106A5000BDE8F04FFFF768BB1022062001218DF83A
:106A6000040033688DF806208DF8071001A89847B8
:106A7000002CCDD1E7E700F00F004BEA010137F819
:106A80001030296003F1804303F51C3342F0800A83
:106A900019680246E9B100211960BFF36F8FBFF397
:106AA0004F8F4FF08053BAF1800FD3F8303129D097
:106AB000082B04BF204BC3F81C1C234B002188F873
:106AC000001003EB00110001897B032913D01B5830
:106AD0008BB1D9F800301BEA0303B2D106228DF83E
