:10100000000004200918000031180000B52C000071
:1010100035180000371800003918000000000000E3
:101020000000000000000000000000003B1800006D
:101030003D180000000000003F18000041180000AB
:101040008D540000C9A000009D540000431800000A
:101050004318000043180000494E000043180000E8
:1010600043180000319300004318000043180000AB
:101070004318000043180000431800004318000004
:1010800043180000F9120000431800004318000044
:101090009913000043180000431800004318000093
:1010A00043180000431800004318000043180000D4
:1010B000431800004318000000000000000000007A
:1010C00043180000431800004318000043180000B4
:1010D000431800004318000043180000DD6F0000B3
:1010E00043180000431800004318000000000000EF
:1010F000000000004318000000000000431800003A
:1011000000000000000000000000000000000000DF
:1011100000000000000000000000000000000000CF
:1011200000000000000000000000000000000000BF
:1011300000000000000000000000000000000000AF
:10114000000000000000000000000000000000009F
:10115000000000000000000000000000000000008F
:10116000000000000000000000000000000000007F
:10117000000000000000000000000000000000006F
:10118000000000000000000000000000000000005F
:10119000000000000000000000000000000000004F
:1011A000000000000000000000000000000000003F
:1011B000000000000000000000000000000000002F
:1011C000000000000000000000000000000000001F
:1011D000000000000000000000000000000000000F
:1011E00000000000000000000000000000000000FF
:1011F00000000000000000000000000000000000EF
:101200000348044B834202D0034B03B11847704795
:10121000A0000020A00000200000000005480649B2
:101220000B1AD90F01EBA301491002D0034B03B1F4
:1012300018477047A0000020A00000200000000018
:1012400010B5064C237843B9FFF7DAFF044B13B10E
:101250000448AFF300800123237010BD600100201B
:1012600000000000F002010008B5044B1BB1044966
:101270000448AFF30080BDE80840CFE7000000005D
:1012800064010020F0020100A3F5803A704700BF1E
:10129000154B002B08BF114B9D46FFF7F5FF0021B2
:1012A0008B460F461148124A121A0BF02BFD0C4BBD
:1012B000002B00D098470B4B002B00D09847002004
:1012C000002104000D000B480BF0ABFC0BF0D8FC28
:1012D000200029000AF07AFF0BF0AAFC00000800A9
:1012E0000000000000000000000004206001002059
:1012F000000C002059CC0000F8B5204A204B0024F7
:10130000C2F84041C2F84441C2F84841C2F84C41D9
:10131000C2F80041C2F804411B6833B31949D2F83E
:1013200004550A68AD1A1A6825F07F45AA42274677
:101330000DD8197CDE69AD1A144419B1D3E9052022
:101340001F7490471EB133461A68AA42F1D90E495C
:101350000E4A0B7812789A4208D00D480D4A40F890
:1013600023404FF48011C2F80011F8BD531CDBB2CA
:10137000022B08BF00230B70EFE700BF00100140F5
:101380009C02002098020020950200209402002078
:101390008C02002000E100E02DE9F04FA54AA649AB
:1013A00013780978DFF8B0829942D8F8009085B0B8
:1013B00000F07F810133DBB2022B08BF00239F487E
:1013C00013709F4A076852F823107B1823F07F435D
:1013D0000360B9F1000F00F0B38100254B462E46A3
:1013E0002C46AC4612E0DD68D869C3F800C014444E
:1013F000891A35B13A1922F07F42C3E90125DE612D
:101400001E460125002800F0578103461A688A42CB
:10141000E9D915B1C8F800309946521A1A6001236B
:101420000293884B884FDFF834A243F001034D4606
:1014300003934FF0000B7EB3D6E901303446F669D2
:101440007E4ADFF81CC21268991A21F07F4161457B
:1014500000F29B800B1823600022C4E90122E261A4
:1014600001222274002D00F0A8802968994280F0A2
:101470009D802A4604E01068984280F0A2800146D0
:101480009646D2699C465B1A002AF4D170462360C6
:10149000E261C461002ECFD178783978884219D0C2
:1014A000BA780B460131C9B203EB43038A4207EB1A
:1014B000C30239701379946804BF00213970022B7C
:1014C00000F09380032B00F08580012B00F09B80BF
:1014D0008142E5D1BBF1000F01D1A9452BD07DB3ED
:1014E000564A5A4B1468D3F80465594FD5F8008012
:1014F0003A78351B25F07F450335002A00F0E1805E
:101500005249A8452CBF4444641924F07F43C1F8D4
:101510004035D1F80425921B9B1B22F07F420332F9
:1015200023F07F439A4200F2E58000238AF80030DE
:1015300005B0BDE8F08F029B002BF6D0002DCFD177
:10154000444B4FF40032C3F88020BFF34F8FBFF3FA
:101550006F8F3E4E3B4C4FF480330127C6F8483323
:101560003C43C6F808334FF43C607760A047334BE8
:10157000B7604FF43C601D60A047354B1D700023E1
:101580008AF8003005B0BDE8F08FD21A22F07F4211
:10159000824202D2831A23605EE700230122C4E95B
:1015A0000033A360E36122743DB12968C8F80040AC
:1015B000CB1A2B60E56125463DE7C8F8004025467B
:1015C00039E7CDF804E086467144A1EB0C0101989F
:1015D00011605CE7002D3FF461AF00232B74ED69CF
:1015E000002DFBD1C8F8005056E74DB1AC424ED0AB
:1015F0002B4601E09C4235D01A46DB69002BF9D11D
:101600000023237464E7237C002B7FF461AF9C46A6
:10161000D36863601069A0605169E16091699AF8CC
:101620000020A161002A3FF40BAFC4F804C0634658
:1016300006E700BF940200209502002098020020D7
:101640008C02002010E800007C0100200010014006
:101650008902002000E100E09C02002088020020B6
:10166000FEFF7F00944213D0E3692168D361DBB1B0
:10167000AC461A680A441A6065454FF00003397891
:10168000787823741CBF65464FF0010B20E72A468B
:10169000D5F81CC0C8F800C0BCF1000F3FD0D3691A
:1016A0001168002BE5D1E7E70023397878782374B7
:1016B0000EE700260296B4E6C8F8000081460295BF
:1016C000AFE64FF48031204AC3F84413C3F8041343
:1016D0004FF40031C2F8801111601C4A4FF001092B
:1016E00042F00102C3F800904FF43C60904787F845
:1016F000009005E7154BD1F80425C1F8402543F0CB
:1017000001034FF43C6098470F4B4FF40032C3F88D
:10171000002100238AF8003005B0BDE8F08F019267
:101720000B4A0C49012393604FF43C60C1F800C0A0
:101730008AF80030039B9847D8F800C0019AAEE7BA
:1017400001234E4602936CE600E100E010E8000041
:1017500000100140980200202DE9F843214E4FF47B
:101760000033C6F88030BFF34F8FBFF36F8F1E4D2D
:101770001E4FDFF890904FF480334FF001080024A3
:10178000C5F8483347EA0807C5F808334FF43C600A
:10179000C5F80480B847C5F808804FF43C60C9F824
:1017A0000040B847124A134B1470134A1C8014604F
:1017B000124A1470124A14700B229A704FF480125D
:1017C000C023C6F8802186F814333260C5F8088536
:1017D00086F81133D5F80435C9F800302046BDE845
:1017E000F88300BF00E100E00010014010E80000B5
:1017F000890200207C0100209C020020940200202D
:1018000095020020980200200649074A074B9B1AC0
:1018100003DD043BC858D050FBDC06F0CDFAFFF7DF
:1018200037FD00008C080100080000206001002046
:10183000FEE7FEE7FEE7FEE7FEE7FEE7FEE7FEE780
:10184000FEE7FEE7F0B595B0084600240E461746C1
:101850001D4603F01FF81A9A0D922346082205A987
:101860003046CDE9095408978DF82C400C9403F0CC
:1018700077F8DDE906219DF814308DF81140CDE9A7
:10188000021203F00302012A28D0022A04D03046B3
:1018900003F004F815B0F0BDBDF81650C3F3C20351
:1018A000C5F389158DF810300827082D2C4628BF60
:1018B00008243B4622460EA9304603F051F82D1B62
:1018C00008AB02AA21460EA8274401F05BF8002DC0
:1018D000EBD1304602F0E2FF15B0F0BDBDF81410B8
:1018E0000598C1F38312C3F3C203C0F39525C1F376
:1018F00083148DF810300EA930469200082303F0AF
:101900002FF808AB0093224602AB0EA9284600F040
:10191000C3FF304602F0C2FF15B0F0BD704700BFF4
:1019200000B583B0044B0093044A4023FFF78AFFBD
:1019300003B05DF804FB00BF41190000A4020020C1
:1019400038B50F480F4D03780F4CEB5C4FF0000C8F
:10195000D2B284F800C053B1043004F01DFB58B972
:101960000A4B1B7813B12378002BFCD038BD0C3008
:1019700004F028F80028F3D001F030F9F0E700BFB8
:101980000800002004080020E4020020A00200203B
:1019900010B51548154A0378D35C88B0C3B104303C
:1019A00004F042FA124C0FCCEC46ACE80F0094E87D
:1019B0000F008CE80F0006230B48009300226946B5
:1019C00003F07EF940B90B4B00221A7008B010BD2D
:1019D0000C3003F071FFE5E701F000F9054B002240
:1019E0001A7008B010BD00BF0800002004080020D5
:1019F00018E80000A0020020054A00230428C1E9DD
:101A00000132CB609CBF034B53F820300B60704712
:101A1000D4EC0000F8EC0000C368DB6800225A71C7
:101A2000704700BFC368DB6801225A71704700BF6E
:101A300010B50F4B0F4CA4EB030E00220E4CCA60E6
:101A40005FEA1E1EC1E900228C600DD003EB0E1E62
:101A5000DC6894F804C0BCF1FF0F02D0904204D0BF
:101A6000013210337345F3D110BD9B680B6010BD7C
:101A700094030100A40301000CED000001290346BA
:101A800004D08168D1F84811890704D50022114695
:101A9000184602F023B910B5054954681368054A81
:101AA00082B0CDE90014022101F04AFE02B010BD5F
:101AB00064E8000058E800008368D3F848319B07C9
:101AC0002FD42DE9F04F194C194F3F1B3F0983B01C
:101AD00024D0DFF864B0DFF864A0DFF864908046BB
:101AE00004EB07170BE076790195002E14BF5D46D5
:101AF00055460095103401F023FEA7420ED0D4E9DC
:101B000002363579FF2D4A464FF008014046EAD1AA
:101B1000084A103401F014FEA742F0D103B0BDE82A
:101B2000F08F0022114602F0D9B800BF94030100E3
:101B3000A403010090E800007CE8000084E80000B5
:101B4000B0E800008368D3F848319B0703D4044A07
:101B5000022101F0F5BD0022114602F0BFB800BF1E
:101B6000D4E8000070B5324C84B004F5836001F015
:101B7000A1F904F2144001F09DF9A368DAB2D11C76
:101B800004EB810C14F82110480747D501F0040636
:101B9000981C9CF8001001F003010129054637D07C
:101BA000022902F1030124D004EB810C002EF0D1B4
:101BB00004EB82020133D1680191DBB204EB8303B1
:101BC00001F00302012ADE682AD0022A0FD1BDF8F3
:101BD0000630C3F389130333360C05EB9305154820
:101BE00001F074F900B1A560304604B070BD002664
:101BF000F5E7BCF8023000EB9313DAB2D11C04EB2A
:101C0000810C14F82110981C01F004060546CDE75C
:101C1000BCF80030C3F383130344EEE79D1CC7E711
:101C2000BDF80430C3F38313360C1D44D7E700BF5F
:101C3000B8030020CC0700208368D3F848319B0705
:101C400003D4044A022101F07BBD0022114602F0B8
:101C500045B800BFD4E800002DE9F0410F4C104D0D
:101C600052F8046C2D1B2D0907460FD004EB051507
:101C700002E01034A54209D0A16830460BF044F9C7
:101C80000028F6D1E3685871BDE8F0813346384644
:101C9000044ABDE8F041022101F052BD9403010065
:101CA000A4030100E8E800002DE9F041104C114DBB
:101CB00052F8046C2D1B2D09074610D004EB0515B6
:101CC00002E01034A5420AD0A16830460BF01CF99E
:101CD0000028F6D1E36801225A71BDE8F08133464D
:101CE0003846054ABDE8F041022101F029BD00BF98
:101CF00094030100A4030100E8E80000104A30B496
:101D0000104DA2EB050C00230F4ACB605FEADC0C00
:101D10004B608A6011D00D4C02E001339C4508D025
:101D200034F823209042F8D155F833300B6030BCA2
:101D30007047002330BC0B6070476346F6E700BF76
:101D400094030100F4020100D4EC0000A000002084
:101D50002DE9F04FCB68404EDFF828915B79A6EB78
:101D6000090685B08B468046F608002B6FD03B4AAB
:101D70003B4B0821404601F0E3FC3A4A082140462B
:101D800001F0DEFC86B3384DDFF8FCA0B70000247C
:101D90000023EA5A94423ED004339F42F9D1D446FC
:101DA000002335F82320A24245D001339E42F8D1CA
:101DB000002150468E46002335F82320944216D049
:101DC00001339E42F8D18E45CDE900C0274A4FF03D
:101DD000000304F1010413D925490291404608216A
:101DE00001F0AEFCA642D3D105B0BDE8F08F8E4520
:101DF000CDE900C059F833301C4A04F10104EBD896
:101E00001C4902914046082101F09AFCB442BFD11E
:101E100005B0BDE8F08FDBF80C201749595813794D
:101E200003EB4302072393400B40D340DBB2134A3A
:101E300052F823C0B4E709EBC30393F806E00F4B55
:101E40007146032928BF032153F82100B3E70C4A48
:101E5000022101F075FC8AE79403010028E90000E3
:101E60001CE9000048E90000A000002088E900000B
:101E7000A0E90000D0E80000F0000020E4EC000041
:101E800008E90000F402010000E900008C46134656
:101E9000C1686246FFF75CBF2DE9F047124C134D55
:101EA00052F8049C2D1B2D09074615D0164688466E
:101EB00004EB051502E01034A5420DD0A168484698
:101EC0000BF022F80028F6D1334642462146384628
:101ED000BDE8F047FFF73CBF4B463846044ABDE833
:101EE000F047022101F02CBC94030100A40301007F
:101EF000E8E8000002B970472DE9F04F1F46CB68B3
:101F00007C4993F804B085B00646904638680722AD
:101F10000BF00CF800286BD1B8F1010F00F0DC8059
:101F2000754D044655F8041B78680A220AF0FEFF36
:101F300058B10134052CF5D17B68704A0221304636
:101F400005B0BDE8F04F01F0FBBBE3B2B8F1020F02
:101F5000019340F0BE806A4D6A4B5B1BDB0844D0A6
:101F60000BEB4B0B04FA0BF405EBC30907233046CC
:101F7000654FDFF8A481DFF898A1264603FA0BFB32
:101F8000019C0CE02B6801900221083501F0D8FB80
:101F9000A945019807F1040708F1040825D0AB7999
:101FA000A3425246EED33A6882EA060303EA0B03E1
:101FB0005340C3F3C202C3F382118A4238BF0A46B8
:101FC00003F007018A423B6038BF0A46C3F342234D
:101FD000934205F1080538BF1346A945A8F8023019
:101FE00007F1040708F10408D9D105B0BDE8F08F66
:101FF0004649386808220AF099FF002876D1B8F1DE
:10200000010F044670D04FF001090190C145ECD298
:102010000BEB4B0B04FA0BF3039309F18043013BE9
:10202000374C384D07EB830707232D1B03FA0BF3BF
:10203000ED08029357F804AF1DB34FF0000B03E017
:102040000BF1010B5D451AD0202254F83B0051469C
:102050000AF06CFF04EBCB020028F1D19179019BCF
:10206000994215D213682A4A0221304601F068FBD2
:1020700009F10109C845DDD105B0BDE8F08FD7F8F9
:1020800000A0244A53460221304601F059FBEFE7F5
:102090001D4B039A53F82B00029B1F4942401A40E4
:1020A000194B4240C2F3821043F82B20C2F3C20303
:1020B000834238BF034602F007008342C2F3422244
:1020C00038BF034601EB8B019A4238BF1A464A805B
:1020D000CEE74FF0020999E7104A0221304605B0D9
:1020E000BDE8F04F01F02CBB019034E73B680C4A8F
:1020F00024E700BFA4E90000E4EC00001CEA0000B3
:10210000F402010094030100F0000020C4E9000083
:10211000E4E9000008EA0000A0000020ACE90000AB
:10212000CCE900008C461346C1686246FFF7E2BE68
:102130002DE9F047124C134D52F8049C2D1B2D092C
:10214000074615D01646884604EB051502E0103404
:10215000A5420DD0A16848460AF0D6FE0028F6D167
:102160003346424621463846BDE8F047FFF7C2BE37
:102170004B463846044ABDE8F047022101F0E0BA78
:1021800094030100A4030100E8E8000030B499B111
:102190000D490E4D491BC90813D00D4C002302E018
:1021A000013399420AD034F823208242F8D11846EC
:1021B00055F8300030BC7047044DF9E7002030BCC2
:1021C00070470846F6E700BF94030100F4020100DF
:1021D000A0000020094B013903EBC00003290BD8F4
:1021E000DFE801F00402080604207047022070476F
:1021F000407970470079704700207047F402010071
:10220000704700BF2DE9F047994CD4E901239A4269
:1022100084B064D00023C4F81834BFF34F8FA5688E
:10222000EAB2D31C04EB830114F82330580718D505
:1022300066680B7803F00303012B46D0022B03D111
:102240004B88023505EB9315EAB2D4F81804D31C79
:1022500004EB830128B9AE423DD914F823305B0763
:10226000E7D404EB82026B1CDBB2D26804EB83037D
:1022700002F00301DB680229CDE9012305F1020721
:1022800031D0012900F0AA80D4F810543DB12B6858
:1022900028469B689847EB681D68002DF7D1754B61
:1022A0005B88012B09D97448744B7549C01AC00862
:1022B000000440F0020000F03FFAD4E90130C01AF7
:1022C00018BF012004B0BDE8F0870B880235C3F3C6
:1022D00083131D44B8E7A66004B0BDE8F087002072
:1022E00004B0BDE8F087BDF8063066489DF804608C
:1022F000C3F389194D46502D28BF502505F108011B
:1023000065F38F13C1F30901ADF8063002F074FADA
:10231000C6F3C20680460028B6D002F0BBFA0023FE
:10232000082201A9404602F0E7FAFB43DBB2013381
:10233000FAB20332B5EB830F04EB82014FEA83025A
:1023400040F28B805FFA82FA40460823A5EB0A052B
:1023500002F0D2FAEDB20AF108034B4903F0FC0394
:102360002A46404602F0C8FA09F1030907EB99072B
:10237000D4F81834002B76D1D4F8105405B3DFF814
:102380000CA14FF00709EB685A79B2B11A7902EB48
:102390004201BDF808205AF8220009FA01F2052E80
:1023A00002EA000208BF0326CA40964205D82B68FD
:1023B00028461B6841469847EB681D68002DE2D10E
:1023C000404602F06BFA002000F062FCD4F81834AA
:1023D00003B9A760002000F063FC6EE7BDF804605D
:1023E0002848C6F38313062B28BF062363F38916F8
:1023F000023303F00F018900ADF8046002F0FCF92C
:10240000C6F3C206804600283FF43EAF02F042FA0F
:102410000023082201A9404602F06EFABDF80430FC
:1024200013F4707FA4D06FF00109A9EB050908250A
:10243000F9B203312B46042204EB8101404602F03D
:102440005BFABDF804300137C3F3831309EB0702CD
:10245000934205F10405EBD88AE72A460823404653
:1024600002F04AFA80E7404602F018FA25E700BF7A
:10247000B8030020B800002024030100F40201008A
:102480003CEA0000DC030100C4030020F00000204F
:102490002DE9F047DFF8ECA00546002098460F46EE
:1024A000914600F0F5FBDAF80830DAF8046003F53D
:1024B00080739B1B052B61D80AF21C440121204626
:1024C00000F0E0FCFFF74EFB0146204600F0DAFC8E
:1024D000DAE9012303F580739B1A052BEED9D3B2F9
:1024E0000333063240F2051100204AF82310CAF8DF
:1024F000042000F0D5FBB31CDBB20AEB8303089A7F
:10250000C3F80C90F31CDBB20AEB83031C48C3F83E
:102510000C80331DDBB20AEB83030021DA60731DEC
:10252000DBB20AEB8303099ADA6000F0A1FC80F3C6
:1025300010031B0443EA1543ED00721C05F0380537
:1025400045F48075D2B2F6B245F001050AEB82027D
:10255000033645EA8725D3604AF826509AF80030BA
:102560001BB9FFF74DFEBDE8F087FFF74BFE0028D3
:10257000F7D0FFF747FE0028F7D1F2E73246AEE783
:10258000D4070020B80300202DE9F047DFF8DCA0D5
:102590000546002098460F46914600F079FBDAF890
:1025A0000830DAF8046003F580739B1B042B58D8BD
:1025B0000AF21C440121204600F064FCFFF7D2FA25
:1025C0000146204600F05EFCDAE9012303F5807342
:1025D0009B1A042BEED9D3B203330532C521002058
:1025E0004AF82310CAF8042000F05AFBB31CDBB2EF
:1025F0000AEB8303089AC3F80C90F31CDBB20AEBD6
:1026000083030021C3F80C80331DDBB20AEB830384
:102610001548DA6000F02CFC80F31003721CE9000E
:1026200001F03801D2B2F6B21B0441F0C1010AEB4D
:102630008202033643EA154341EA8727D3604AF80A
:1026400026709AF800301BB9FFF7DAFDBDE8F08775
:10265000FFF7D8FD0028F7D0FFF7D4FD0028F7D109
:10266000F2E73246B7E700BFD4070020B8030020E6
:102670002DE9F843DFF8BC90054600200F46904650
:1026800000F006FBD9E9016303F580739B1B022B65
:102690004CD809F21C440121204600F0F3FBFFF75F
:1026A00061FA0146204600F0EDFBD9E9012303F56C
:1026B00080739B1A022BEED9D3B203330332452128
:1026C000002049F82310C9F8042000F0E9FAB31CEF
:1026D000DBB209EB83030021C3F80C80144800F03F
:1026E000C7FB80F31003721CE90001F03801D2B27D
:1026F000F6B21B0441F0410109EB8202033643EAC2
:10270000154341EA8727D36049F8267099F80030CD
:102710001BB9FFF775FDBDE8F883FFF773FD0028CF
:10272000F7D0FFF76FFD0028F7D1F2E73246C3E795
:10273000D4070020B80300202DE9F041294C0646BB
:102740000020884600F0A4FAD4E9017303F58073F1
:10275000DB1B012B44D804F21C450121284600F064
:1027600091FBFFF7FFF90146284600F08BFBD4E907
:10277000012303F580739B1A012BEED9D3B20333E7
:1027800002320521002044F82310626000F088FA2C
:102790000021154800F06CFB80F310037A1CF10057
:1027A00001F03801D2B2FFB21B0441F0010104EB89
:1027B0008202033743EA164341EA8821D36044F892
:1027C000271023781BB9FFF71BFDBDE8F081FFF749
:1027D00019FD0028F7D0FFF715FD0028F7D1F2E723
:1027E0003A46CBE7B8030020D407002038B5084BA1
:1027F000D3F8104401251D704CB1E3685D71236866
:1028000020465B689847E3681C68002CF5D138BD0A
:10281000B803002030B5C38885B004460D4623BBFD
:10282000237A052B1FD0627AA0887AB9134A002137
:1028300052F823200392FFF7A9FC039A104903469C
:10284000284605B0BDE8304001F0E6BB1946FFF769
:10285000C1FC0C4B0C4953F82020284601F0DCFB4E
:10286000237AA088E2E705B030BD08490091084A04
:102870000849284601F0D0FBD2E700BFFCEE00007B
:1028800080EE0000D8EE00007CEE000074EE000048
:1028900054EE00005CEE00002DE9F04385B01D46CB
:1028A0000C9C002394F80C90237380460E46174628
:1028B00021462846FFF7AEFF062F09D8DFE807F0CC
:1028C000042E343B444F1F004146204601F0A4FB38
:1028D0002B7A052B05D06B7A5BB92749204601F08E
:1028E0009BFB204601F08CFB84F80C9005B0BDE802
:1028F000F083224A2249204601F08EFBEDE77369FE
:10290000039333690293F3680193B3680093D6E9A4
:1029100000234146204601F07FFBD9E7326841465B
:10292000204601F079FBD3E7D6E900234146204653
:1029300001F072FBCCE7B3680093D6E9002341466F
:10294000204601F069FBC3E7F3680193B368009385
:10295000D6E900234146204601F05EFBB8E7336923
:102960000293F3680193B3680093D6E900234146CC
:10297000204601F051FBABE7ACE8000074EE00002C
:102980007CEE0000082900D970472DE9F04F1D4664
:1029900083B000241B7B2C730E4607462946104645
:1029A00090460193DFF8D0B0DFF8D0A0FFF732FFF8
:1029B00005E03A5D013401F02FFB082C09D0A64256
:1029C00051462846F5D85946013401F025FB082C1C
:1029D000F5D12449DFF8A8B0234CDFF8A8A0284699
:1029E00001F01AFB4FF0000917E017F80910481C16
:1029F0007E294FF02E02C0B206D810F80A2012F03D
:102A0000970F14BF0A462E222146284609F10109D4
:102A100001F002FBB9F1080F0AD04E45E5D859463E
:102A2000284609F1010901F0F7FAB9F1080FF4D1CC
:102A300098F80830052B02D098F809305BB90B499B
:102A4000284601F0E9FA284601F0DAFA019B2B73D7
:102A500003B0BDE8F08F064A0649284601F0DCFACB
:102A6000EDE700BF98EE00009CEE0000ACE800002F
:102A700074EE00007CEE000094EE00008CEE00008E
:102A800088EE0000E9010100064B1A5C1F2A86BF90
:102A9000054902F01F024FF0A04101239340C1F805
:102AA0000C35704710EF000000030050064B1A5C15
:102AB0001F2A86BF054902F01F024FF0A0410123E3
:102AC0009340C1F80835704710EF00000003005034
:102AD0000A4B185C1F288ABF09494FF0A04100F03B
:102AE0001F00D1F804350122824022EA030013407E
:102AF000C1F80805C1F80C35704700BF10EF0000A1
:102B000000030050C30706D4830742BF2F4B0C229B
:102B1000C3F81827704710B44FF08043D3F84036FD
:102B2000DA0723D44FF0A043284903224024C3F8F6
:102B30001827C3F82027C1F82427C3F83027C3F883
:102B400008454FF400724FF48074C3F80845C1F88B
:102B500008254FF480528107C3F8082503D51B4B85
:102B60000C22C3F818275DF8044B70474FF0102370
:102B7000D3F8043303F00703072BD3D1144A0123FE
:102B8000C2F80435D2F80034002BFBD04FF01021EE
:102B90000020D1F804330E4C23F0070343F0040364
:102BA000C1F80433C2F80405D4F80034002BFBD07C
:102BB000BFF34F8F0749084BCA6802F4E062134322
:102BC000CB60BFF34F8F00BFFDE700BF0003005095
:102BD00000E0014000ED00E00400FA0500B585B01A
:102BE0000346002101AA44F20100CDE9011103933B
:102BF00000F004F805B05DF804FB00BF70B572B6D4
:102C0000FFF7F4FDFFF7FEFA0028FBD1194D6B88A2
:102C1000FBB9194BD3F8F030DB070DD5174C184E24
:102C200000BE6B88012B07D9A01BC0080004154902
:102C300040F00200FFF780FDBFF34F8F0E49124BAB
:102C4000CA6802F4E0621343CB60BFF34F8F00BF4A
:102C5000FDE70A4C0A4E0D49A01BC008000440F0D5
:102C60000100FFF769FD044BD3F8F030DA07D8D53F
:102C7000D6E700BFB800002000ED00E0240301000B
:102C8000F402010020EF00000400FA0514EF000038
:102C900072B6024A1368013313607047D8070020E8
:102CA000034A1368013B136003B962B6704700BF63
:102CB000D80700201EF0040F1CBFEFF309800AE0C4
:102CC000EFF308800549064A884201D8904202D8AD
:102CD0008D464FF00000034B184700000000042011
:102CE00000E003200D2D0000BFF34F8F0549064B78
:102CF000CA6802F4E0621343CB60BFF34F8F00BF9A
:102D0000FDE700BF00ED00E00400FA052DE9F04FFB
:102D100083B08146FFF76AFDFFF774FA0028FBD104
:102D2000464B4749474ADFF84081956AA3EB010AC1
:102D30004FEADA0A4FEA0A4AB8F802304AF0010AC2
:102D4000B9F1000F72D0002B40D13E4BDB6A3E4FF1
:102D5000DFF818B10024012602E001341A2C12D049
:102D600006FA04F32B42F8D057F82420002AF4D0B6
:102D7000B8F80230002BF0D0594650460134FFF726
:102D800077FC1A2CECD12A060ED5B8F802302BB9F4
:102D90004846FFF7A9FF03B0BDE8F08F294B2B4948
:102DA0005A6B5046FFF764FC2B04F1D5B8F802309B
:102DB000002BEDD0234B26499A6B5046FFF758FC69
:102DC0004846FFF791FF03B0BDE8F08FD9F818200F
:102DD00020495046FFF74CFCB8F80230002BB4D025
:102DE000D9F80C300193D9F808300093D9E90023C1
:102DF00019495046FFF74CFBB8F80230002BA4D01D
:102E0000D9F81C300093D9E9042314495046FFF740
:102E1000BBFB0C4BDB6A990799D5B8F80230002B45
:102E200095D00F495046FFF787FC90E7002B8CD0D8
:102E30000C495046FFF780FCEBE700BF7C03010024
:102E4000F402010000ED00E084F5000068F00000ED
:102E500088F000006CEF000084EF0000BCEF000081
:102E600018F00000E4EF0000E40000205CF0000037
:102E7000034653E8000F0A4643E8002C9CF0000F7D
:102E8000F7D17047034653E8002F02EB010043E8F7
:102E9000000C9CF0000FF6D1704700BF034653E8CA
:102EA000002FA2EB010043E8000C9CF0000FF6D1CC
:102EB000704700BF0346012253E8001F41EA0200A9
:102EC00043E8000C9CF0000FF6D170470346002247
:102ED00053E8000F00EA020143E8001C9CF0000FD9
:102EE000F6D170472DE9F0478368D3F84831C3F332
:102EF00040059B0788B045D401293CD8254C264B7A
:102F0000264A1B1B9F081B2BA2FB072730D9DFF883
:102F100094A006464FF06409A8462368A268187971
:102F200019686368B4F818E0CDF800E0511AD21AB5
:102F300000EB8003C9B203EB8303CDE90602CDE9C0
:102F4000031209FB01FC9B00BCFBF2FCB3FBF2F398
:102F5000CDF808C00593CDF8048063695246082176
:102F60003046013500F0ECFBAF4204F11C04D4D82C
:102F700008B0BDE8F0870A4A022108B0BDE8F04772
:102F800000F0DEBB0022114608B0BDE8F04700F0BB
:102F9000A5BE00BFDC030100F8030100254992240F
:102FA000ECF5000000F6000038B504460020FFF7FD
:102FB0006FFED4E900311A688A4215D9511E196092
:102FC0002168A36812F8012C208B0D68E4685B1B54
:102FD00000FB02440A79DBB29A4200D20B71002056
:102FE000FFF75EFE204638BD00240020FFF758FEA4
:102FF000204638BD38B5054600200C46FFF748FE90
:103000002A681368591C1160E9682A8B641AB4FB9A
:10301000F2F41C70BDE838400020FFF741BE00BF4D
:103020002DE9F041054680684C4E82B00024802294
:103030002146A0308DF8034009F064FE4849286914
:1030400000F0EAFF286900F0DBFF4FF47A7846F0E1
:1030500001066868076801AB0DF103013F690122B1
:10306000B847019B611CD3B19DF80330AA681B2BA4
:1030700002EB040006D092F8A0C0BCF11B0FE8D10F
:10308000522B1BD0CCB2092C80F8A030E1D9AB6810
:10309000002283F8A020042002B0BDE8F0814FF6A2
:1030A000C010B047019B002BD3D108F1FF371FFAA6
:1030B00087F8B8F1000FCCD10D20EDE7002480F89F
:1030C000A040D5F808C09CF8A1305B2B3FD10CF193
:1030D000A107022002E0802894B234D017F8016FD3
:1030E000431C04EB8402A6F130013B2ED8B201EB65
:1030F00042025BB2EFD1002B25DB00F19F0EE644CC
:10310000002102E099B23B061DD41EF8016F01EBCD
:103110008103471CA6F1300202EB4303F8B2002EF4
:10312000F0D1FA2928BFFA218CF81410AB68FA2CD8
:1031300086BFFA229A759C75AB68002083F8A000C0
:1031400002B0BDE8F0810C2002B0BDE8F0810B2098
:103150008CF8A04002B0BDE8F08100BFA0FB0000E9
:1031600094FB00002DE9F04F814D0B78EB5C8BB0A8
:1031700013F0080302910746069200F0F6800B4612
:10318000C1F10101C81813F8012FAA5C1607F9D480
:103190008346069AD3B205931346029A9B1A079365
:1031A000D946B846029C204609F0B8FED8F8083047
:1031B00093F819C0069BA0EB0900ACEB030B584534
:1031C00074D9079ACDF8049009F1FF33C4F10106D0
:1031D0002344A6EB090AA2EB090E5A78A95C0AEB74
:1031E000030406EB0309090703F101030EEB0300D7
:1031F00002D50A2A55D0A3468445EED8DDF80490BE
:10320000029A09EB0B030493D31803935C46D8F896
:10321000100000F0F5FE2CB34FF0000B09ABCA46CE
:10322000D8F80400029902680193D76851442246F5
:10323000B8470999019B29B1641A8B4412D009EB54
:103240000B0AEDE7D8F8082011780329E8D0D2F866
:1032500048118906FBD5B2F848116FF34511A2F861
:103260004811DDE7039B1B78EB5C180765D5049BD1
:10327000029A13441C4606EB040914F8013FEB5C68
:103280001B07F8D4D8F810003A4900F0C5FE059B9A
:10329000002B87D03849D8F810001A4600F0BCFE41
:1032A00080E7CDE90339DDF80490B0E74946CB4625
:1032B0004746002834D0029A09F1FF3313444FF0F7
:1032C000000903E009F10109484529D013F8012F4D
:1032D0000A2A01EB0904F5D1386900F091FEB9F131
:1032E000000F15D04FF000080DF1240A5E467868F3
:1032F000029902683144D56853464A46A84709995D
:10330000F1B1B9EB0109884402D00BEB0806EEE7F6
:10331000631C184938699B4600F07EFE059BF3B993
:10332000029B38695B44194600F076FE1149386902
:103330000BB0BDE8F04F00F06FBEDDF81090A1E7D4
:10334000B8680378032BD2D0D0F848319D06FBD55E
:10335000B0F848316FF34513A0F84831C7E7064984
:1033600038691A4600F058FEDAE79B4611E700BFBD
:10337000EA0101008CF6000014F700000CB470B5EF
:1033800084B008AB816853F8045B0193D1F84831ED
:103390005B07044601D5CB7E4BB9206901AA2946BB
:1033A00000F00CFF04B0BDE8704002B0704702228C
:1033B0001B31684609F098FCA3682C4A2C4900266A
:1033C000DE76206900F028FE206901AA294600F077
:1033D000F5FE9DF80030002B3BD0A268D17E9942CB
:1033E00011D02448029033218DF80C1003F12F00E6
:1033F0006D218DF80D00ADF80E10D3761C492069B3
:1034000002AA00F009FE9DF80130002BCAD0A26884
:10341000117F9942C6D01B205B218DF808008DF8E2
:103420000910342003F12F018DF80A008DF80B10DC
:103430006D2000218DF80C008DF80D1013770C49CC
:10344000206902AA00F0E8FD04B0BDE8704002B0B7
:103450007047A168054ACB762069054900F0DCFD7C
:103460009DF80130002B9DD0D1E700BF84FB000008
:103470007CEE00001B5B313B0CB430B585B008AB73
:10348000816853F8045B0193D1F848315B07044627
:1034900002D5CB7E082B09D1206901AA294600F06C
:1034A0008DFE05B0BDE8304002B0704702221B31EE
:1034B000684609F019FCA368DA7E082A0AD02E496A
:1034C0002E4ACDE902120822DA762D4920696A4493
:1034D00000F0A2FD206901AA294600F06FFE9DF8C8
:1034E0000030002B3BD0A268D17E994211D02248F7
:1034F000029033218DF80C1003F12F006D218DF80F
:103500000D00ADF80E10D3761D49206902AA00F017
:1035100083FD9DF80130002BC3D0A268117F994232
:10352000BFD01B205B218DF808008DF809103420D6
:1035300003F12F018DF80A008DF80B106D2000218A
:103540008DF80C008DF80D1013770D49206902AA33
:1035500000F062FD05B0BDE8304002B07047A168E0
:10356000084ACB762069064900F056FD9DF80130E7
:10357000002B96D0D1E700BF1B5B313B33376D008A
:103580007CEE000084FB00002DE9F04F814687B0FF
:10359000524809F0C3FC0546514809F0BFFCD9F870
:1035A0000830504A5B6800922D1A4F4A484608215D
:1035B000FFF762FFD9F808305868ADB2002800F074
:1035C0008A8009F0ABFC84B2464809F0A7FCD9F820
:1035D00008309968204482B211B14846FFF7C2FD15
:1035E000424A00214846FFF7C9FE3D4809F096FCD3
:1035F000841C2C4439493E4A0091A4B22346082138
:103600004846FFF739FFE21C3A4992B24846FFF7B5
:10361000A9FDD9F80830D3F80C80B8F1000F4FD0CD
:1036200000252E462F460EE0A047029802ACB8B106
:1036300009F074FCB84205D92068002843D009F08D
:103640006DFC87B2103598F80020D8F80440304659
:1036500002A90136002AE7D160592C440028E7D19D
:10366000012E2DD0244ADFF888B00021484607F10A
:10367000020AFFF783FE00251FFA8AFA12E0A0472C
:10368000029E02ACE6B108215A46484653460096CF
:10369000FFF7F2FE61687A1D92B24846A9B1FFF7C2
:1036A00061FD013598F80030D8F804402A0102A9DC
:1036B0002846002BE3D1A65804EB0514002EE2D1D6
:1036C00007B0BDE8F08F0746BCE70C49D9F81000F9
:1036D00000F0A2FCE5E7044676E700BFA8FB000087
:1036E0000CFD00009CFB0000C8F800001CF7000067
:1036F00028F7000030F7000044F700008CF60000C7
:10370000022910B5044604D18368D3F848319B07D9
:103710000BD42069074A084900F07EFC2069074A5B
:103720000549BDE8104000F077BCBDE81040FFF748
:103730002BBF00BF90FB00007CEE000088FB000068
:103740000CB470B584B008AB044653F8046B8068C1
:103750000193D0F848315B0703D5C37E8B420D46F9
:1037600009D1206901AA314600F028FD04B0BDE866
:10377000704002B0704700F11B010222684609F058
:10378000B3FAA368002D65D0DA7EAA4211D0354A7B
:10379000029233228DF80C2005F12F028DF80D20B6
:1037A0006D22ADF80E20DD762F49206902AA00F0C7
:1037B00033FC206901AA314600F000FD9DF800307D
:1037C000002B3BD0A268D17E994211D025480290AF
:1037D00033218DF80C1003F12F006D218DF80D00B1
:1037E000ADF80E10D3762049206902AA00F014FC2F
:1037F0009DF80130002BB9D0A268117F9942B5D055
:103800001B205B218DF808008DF80910342003F18E
:103810002F018DF80A008DF80B106D2000218DF816
:103820000C008DF80D1013770F49206902AA00F0E3
:10383000F3FB04B0BDE8704002B07047A1680B4ACA
:10384000CB762069084900F0E7FB9DF80130002B9A
:103850008CD0D1E7DD76054A0349206900F0DCFB16
:10386000A7E700BF1B5B313B7CEE000084FB000040
:1038700001290AD0022904D18368D3F848319B0773
:1038800003D4034A0221FFF75BBFFFF77DBE00BFF1
:10389000A8F70000F0B50129856883B010D0D5F8ED
:1038A00048319B0744D4022947D854682A491368F1
:1038B0002A4ACDE900140221FFF742FF03B0F0BD10
:1038C0000446FFF7ADFB28BBA368254920691F7D8F
:1038D0009E7DFA2200F0A0FB20692249FA2200F026
:1038E0009BFB2046FFF79CFBA0B9A3681A7D6A7674
:1038F000A368D21B9B7D2B7612F0FF0225D19B1B68
:1039000013F0FF02DAD01849206903B0BDE8F04097
:1039100000F082BBA36850225A76A368134A18218C
:1039200019762046042103B0BDE8F040FFF708BF38
:1039300003B0BDE8F040FFF727BE6B680C4A0221D8
:1039400003B0BDE8F040FFF7FBBE0A49206900F074
:1039500063FB2B7ED3E700BF64E800005CF8000047
:1039600014F7000054F7000064F7000004F80000AA
:1039700040F800005CF700008368D3F84821C2F3E8
:10398000400C920708D4012908D1B3F848216CF300
:103990008202A3F848217047FFF7F6BD5B68024A30
:1039A0000221FFF7CDBE00BF40F800008368D3F8C6
:1039B0004821920708D4012908D1B3F8482142F0E0
:1039C0000402A3F848217047FFF7DEBD5B68024A96
:1039D0000221FFF7B5BE00BF40F800008368D3F8AE
:1039E0004821C2F3400C920708D4012908D1B3F84A
:1039F00048216CF3C302A3F848217047FFF7C4BD08
:103A00005B68024A0221FFF79BBE00BF40F800003E
:103A10008368D3F84821920708D4012908D1B3F864
:103A2000482142F00802A3F848217047FFF7ACBDD7
:103A30005B68024A0221FFF783BE00BF40F8000026
:103A400030B48468D4F848219307C2F3400509D400
:103A500001290AD1C4F83851C3685B6830BC1868C2
:103A600001F036B830BCFFF78FBD6368024A30BC46
:103A70000221FFF765BE00BF40F800008368D3F85D
:103A8000482192070FD401290FD110B50446094AE5
:103A90000949006900F0C0FAA36850225A76A36869
:103AA00018221A7610BDFFF76FBD5B68034A02212A
:103AB000FFF746BE7CFB00007CEE000040F80000F3
:103AC00030B58568D5F84841A30783B0C4F3400CEE
:103AD00011D4022914D81BD0D5F848211149124B12
:103AE00012F0080F114A18BF0B46614603B0BDE83B
:103AF0003040FFF743BC03B0BDE83040FFF744BDA2
:103B00006B680B4A022103B0BDE83040FFF718BED6
:103B10005568084C1368084ACDE90045FFF710FEC8
:103B200003B030BDDCF3000068F800006CF8000062
:103B300040F8000064E800005CF80000F0B584681C
:103B4000D4F84821930785B0C2F340071DD401295A
:103B500020D1C3685B681C680546204600F0B4FFAE
:103B6000A668AB68C2B2642402FB04F4B4FBF6F4AA
:103B7000E4B2D3F838310094CDE901263946094A38
:103B80002846FFF7FBFB05B0F0BD05B0BDE8F040EF
:103B9000FFF7FABC6368044A022105B0BDE8F040B3
:103BA000FFF7CEBD80F8000040F8000001298446F0
:103BB00020D030B58468D4F84851AB0783B00BD41B
:103BC00002290FD155680C4C13680C4ACDE9004509
:103BD000FFF7B6FD03B030BD604603B0BDE830402E
:103BE000FFF7D2BC6368064A022103B0BDE830404B
:103BF000FFF7A6BDFFF7C8BC64E800005CF8000052
:103C000040F80000F0B58368D3F84821C2F34004BF
:103C1000920787B029D401292CD1D3F84051FDB1A6
:103C2000184F064628460023092203A900F098FEF3
:103C30009DF81420B168284609230132A03100F014
:103C40008FFEB268049DA0322346009200213A46BE
:103C500030460134FFF792FB0DB1082CE2D1B36876
:103C6000002283F8A02007B0F0BD07B0BDE8F04007
:103C7000FFF78ABC5B68044A022107B0BDE8F04048
:103C8000FFF75EBDB8F8000040F800000129844647
:103C90000AD002290B460FD08268D2F84811890752
:103CA00002D4022B03D870476046FFF76DBC5368FF
:103CB000074A0221FFF744BD30B5064C556813682A
:103CC000054A83B0CDE90045FFF73AFD03B030BDAA
:103CD00040F8000064E800005CF800002DE9F04FB7
:103CE000074689B0AB480C46904609F017F90546DF
:103CF000A94809F013F9BB68A84A5B680092281A22
:103D0000A74A85B208213846FFF7B6FBBB6858685A
:103D1000002800F03D8109F001F986B29F4809F0C2
:103D2000FDF8BB689968304482B211B13846FFF79C
:103D300019FA9C4A00213846FFF720FBB8F1000F22
:103D400036D0002C00F03E814FEA4803039308EB85
:103D5000480B4FF0000A04F104091FE009F0DEF8F7
:103D600054F82A3006461BB1184609F0D7F8064425
:103D7000B5420ED259F82A00002800F08F8009F0D1
:103D8000CDF885B254F82A0018B109F0C7F82844D4
:103D900085B20AF1030AD34500F0828059F82A005F
:103DA0000028DBD154F82A30002BF2D00646DBE79E
:103DB000794809F0B3F802300544764B7A4A00930B
:103DC000ADB22B46082138460335FFF755FB77493E
:103DD000AAB23846FFF7C6F9BB68D3F80C90B9F120
:103DE000000F51D000252E46A8460FE0A0470498AA
:103DF00004ACC0B109F092F8804506D220680028D2
:103E000045D009F08BF81FFA80F8103599F800209A
:103E1000D9F80440304604A90136002AE6D1605999
:103E20002C440028E6D1012E2ED0614ADFF878B16B
:103E30000021384608F1020AFFF7A0FA00251FFA10
:103E40008AFA13E0A047049E04ACEEB108215A465A
:103E5000384653460096FFF70FFB616808F10502EC
:103E600092B23846A9B1FFF77DF9013599F80030D3
:103E7000D9F804402A0104A92846002BE2D1A6580B
:103E800004EB0514002EE1D109B0BDE8F08F8046A7
:103E9000BBE74849386900F0BFF8E6E7054671E737
:103EA0003D4809F03BF802302E18B6B2394B3E4A75
:103EB000009306F103093346082138461FFA89F9B1
:103EC000FFF7DAFA39494A463846FFF74BF9039BC0
:103ED00006F1020A43445FFA8AFA04EB8308AAF166
:103EE000020A2EE02C48344ACDE900013846082168
:103EF000FFF7C2FA6068002843D009F00FF8C5B296
:103F0000206800283BD009F009F85FFA80FB2248BE
:103F100009F004F8AAEB0505A5EB0B05281A10F02B
:103F2000FF0230D1254938693A2200F075F8A168BE
:103F3000B1B14A463846FFF715F90C3444453FF411
:103F40004BAFD4E9001383B10029CBD100930821F2
:103F5000154A33463846FFF78FFAA1680029E8D1A1
:103F60001449386900F058F8E7E70029DFD00091DC
:103F70000D4A334608213846FFF77EFAD7E78346D5
:103F8000C5E70546BCE70E49386900F045F8C9E7C2
:103F90000646C3E6A8FB00000CFD00009CFB0000E9
:103FA000C8F800001CF7000028F7000030F70000F8
:103FB00044F700008CF60000C4F800009CEE0000FE
:103FC00014F700000A4808F0A9FF02300544ADB21A
:103FD000084B00933846084A2B460821FFF74CFA55
:103FE000EA1C064992B23846FFF7BCF8F4E600BF77
:103FF0000CFD0000A8FB000028F7000030F70000CF
:10400000826842B110B50446436901680069984767
:104010000023A36010BD70470EB400B582B00399B1
:1040200021B104AB01AA019300F0C8F802B05DF819
:1040300004EB03B0704700BF2DE9F04F0F4683B08B
:104040009742DDF830900D99154606469A46C0F025
:10405000B0803B464FF00108B3FBF5F39D4208F1F9
:104060000108F9D9D04538BFD04611F001033068B6
:10407000B268019302D1B9F1000F71D18118531CBC
:10408000BAF1010F4FF0010406D90AF1FF3ABAF173
:10409000010F05FB04F4F8D8B7FBF4F2954205D8FC
:1040A00005FB04F4B7FBF4F29542F9D9DFF808A157
:1040B0000AE0AC42B4FBF5F31DD3B26830681C468D
:1040C0008118531CB7FBF4F21AF802B0BBF10A0FC7
:1040D000184604FB12770B4626D0B06083F800B078
:1040E000D6E901329A42E4D33046FFF789FFB4FBA8
:1040F000F5F3AC42E1D2019B9BB1B9F1000F10D0B6
:104100002024C84509F1FF390BD2B3683268591C25
:10411000B160D454D6E901329A421AD2B9F1000FF3
:10412000EFD103B0BDE8F08F4FF00D03B0600B701E
:10413000D6E90121914201F1010002D233680B441A
:10414000CBE73046FFF75CFFB068336803440130CB
:10415000C3E73046FFF754FFB9F1000FD1D1E0E7D4
:104160008B0717D42024C84500EB020102F101039C
:1041700086D2B3608454D6E901329A4209F1FF39FC
:104180000ED23068B9F1000FEDD18118531C4FF0F9
:10419000000975E7BAF1000F0CBF30242024E2E7D4
:1041A0003046FFF72DFFB2683068B9F1000FDAD161
:1041B000EBE74FF0010855E71CFD0000002900F077
:1041C000AB822DE9F04FDFF828960D7885B00646D2
:1041D00090460C464FF00D0A13E0B26830680A2D85
:1041E00002F1010300EB020100F0C680B3600D7024
:1041F000D6E901329A4280F0B1802578002D00F096
:10420000B4800134002D00F0B080252DE5D1214689
:10421000002711F8012B2D2A00F08580302A00F0AC
:1042200086802B2A76D02A2A00F0B280A2F13003B1
:10423000092B00F2EF81002500E0194605EB85050A
:1042400002EB45056278A2F13000092801F1010373
:104250000C46A5F13005F0D92E2A00F0A5800023E8
:1042600002F0FB00682801F1010405D114F8012BCC
:1042700002F0FB016829F9D0252A00F0C081583AE4
:10428000D1B22029B9D8202AB7D801A151F822F0FB
:104290005F440000FB410000FB410000FB410000C7
:1042A000FB410000FB410000FB410000FB4100001E
:1042B000FB410000FB410000FB41000037430000D0
:1042C000D5430000FB410000FB410000FB41000022
:1042D000FB410000D5430000FB410000FB41000012
:1042E000FB410000FB410000FB410000FB410000DE
:1042F00047450000FB410000FB41000081440000F5
:10430000FB41000079440000FB410000FB4100003C
:104310005F44000047F004070C46214611F8012BCA
:104320002D2A7FF47BAF47F001070C46F5E747F0F5
:1043300002070C46F1E7D8F800301A1DC8F8002033
:104340001D78B3680A2D00F02E823268591CB160C6
:10435000D554D6E901329A42FFF44FAF3046FFF709
:104360004FFE2578002D7FF44CAF337B002B40F0BF
:10437000408105B0BDE8F08FB36000F802A0D6E937
:104380000123934280F030813168194401332DE7D5
:10439000D8F80020101DC8F80000156862782E2A91
:1043A00004F102037FF45BAF4A78A2F130010929DE
:1043B00019464FF000033FF653AF03EB830302EBC4
:1043C000430311F8012FA2F130000928A3F13003B3
:1043D000F3D945E7D8F80020111DC8F80010D2F82D
:1043E00000B08BEAEB72A2EBEB72092A40F3FB817F
:1043F000DFF800C4012011466329ACFB02E200F1A2
:1044000001004FEAD202F6DC9842024638BF1A4653
:10441000029207F00202002D00F03581BBF1000F7F
:10442000C0F24481780700F14181002A00F0408108
:10443000002B40F03D81BBF1000FC0F29B817A0759
:1044400000F1AB8107F00302022A00F06681CDE99A
:10445000005759460A223046FFF7EEFDCDE6D8F860
:1044600000101022081DC8F8000009683046CDE988
:104470000057FFF7E1FDC0E6D8F800100A22F1E787
:10448000D8F800301A1DC8F8002017F00107D3F83B
:1044900000B040F0C380BBF1000F03D0584608F0D5
:1044A0003DFD0746BD4215D9202101E0BD4211D096
:1044B000B2683368501CB0609954D6E90123934226
:1044C00005F1FF35F2D33046FFF79AFDBD424FF0BC
:1044D0002001EDD19BF80050002D3FF48EAEB36863
:1044E00030680A2D03F1010200EB030111D0B26024
:1044F0000D70D6E9012393421DD21BF8015F002DF8
:104500003FF47BAE30680A2D03F1010200EB03019A
:10451000EDD1B26000F803A0D6E90130984200F175
:10452000010280F01F813168B26001440D70D6E94C
:1045300001239342E1D33046FFF762FD1BF8015F90
:10454000002DCCD159E6D8F800301A1DC8F800204B
:104550001F68B3683268581C3021B060D154D6E966
:104560000123934280F09D80591C3268B16078210C
:10457000D154D6E90123934280F08E800F2F03D9C6
:104580003A4612090F2AFCD84FF0805506E00F2D4D
:104590004FEA15137FF631AE1D46B368B7FBF5F150
:1045A00019F801B0D6F800C0BBF10A0F03F10102FF
:1045B0000CEB030005FB11770AD0B26080F800B065
:1045C000D6E901329A42E2D33046FFF719FDDEE721
:1045D000B2600CF803A0D6E901329A4280F09780CD
:1045E000336898180132E8E73046FFF709FDB368F1
:1045F000CAE6304605B0BDE8F04FFFF701BDB3682D
:104600003168581CB060CA54D6E901329A42FFF4AE
:10461000F4ADA3E60B46002521461DE69BF80020DD
:10462000002A00F0E280B3685F46CBF10101D6F8C2
:1046300000E00A2A03F1010001EB070B0EEB030C6B
:1046400059D0B0608CF80020D6E90123934247D2BC
:1046500017F8012F002AEAD15D457FF6CEAD20275D
:1046600002E05D453FF4C9ADB2683368511CB160EA
:104670009F54D6E901329A4205F1FF35F1D3304615
:10468000FFF7BEFCEDE72AB1002B3FF4D4AEFA07EA
:104690003FF5D1AE0025CEE63046FFF7B1FCB3685A
:1046A0006CE73046FFF7ACFCB3685DE7013DBCE664
:1046B000F9073FF5C0AE002DECD020220299A942A7
:1046C000BFF4B9AEB168481CB06030684254D6E956
:1046D0000101814205F1FF3574D2002DEED1D9E7F9
:1046E00030460291FFF78CFC17F8012F002AB3D057
:1046F000B36802999BE7B0600EF803A0D6E90130D9
:10470000984222D2336803EB000C013099E730461F
:10471000FFF776FCB26863E77047002B7FF497AE33
:104720008DB1302202998D427FF691AEB168481C5E
:10473000B06030684254D6E90101814205F1FF358D
:104740004AD2002DEED1002581E63046CDE9022186
:10475000FFF756FCB0683368DDE9022103EB000C7B
:1047600001306EE73046FFF74BFCB2683168114408
:104770000132BCE6B1683268481CB060CBF1000B76
:104780002D205054D6E901219142FFF45BAE304612
:104790000393FFF735FC039B54E6B1683268481C6D
:1047A000B0602B20EDE73268591CB16002F803A01D
:1047B000D6E901239342FFF4C8AD3046FFF720FC51
:1047C000B368C2E530460393FFF71AFC039B20222F
:1047D000002D7FF473AF5DE730460393FFF710FCC5
:1047E000039B3022ADE701200EE6934634E700BF7D
:1047F0001CFD0000CDCCCCCC2DE9F041058B033164
:10480000043D4E198046B6FBF5F6FEF7CDFB0028B9
:1048100036D0F6B24FF48073013E04468380C580E3
:10482000C0F800802DD00346002508E06279AE4232
:1048300002F1010262713860C0F8008021D0404668
:104840001F46FEF7B1FB013503460028EED194F870
:1048500005802768B8F1010216D03D4601339A421F
:104860002D68FBD1B8F1000F0AD0002601E03C46CC
:104870003F68214628460136FEF7BCFBB045F6D816
:1048800000242046BDE8F08121463846FEF7B2FB01
:10489000F6E700BF01210430FEF7F4BA2DE9F0413C
:1048A000012104460430FEF7F9FA10F0FF0301D0AD
:1048B000BDE8F08194F805802768B8F1010214D0B2
:1048C0003D4601339A422D68FBD1B8F1000FEFD07D
:1048D000002601E03C463F68214628460136FEF7A7
:1048E00089FBB045F6D8BDE8F08121463846BDE8E1
:1048F000F041FEF77FBB00BF2DE9F8438846C7882B
:10490000417907FB01F1043902EB030C1E1D6145DF
:10491000154638BFCD1AB7420446B6FBF7F207FB7F
:10492000126002D8013A2468FCD13E1AAE4228BF78
:104930002E469DB14FF000090430AD1B324608EB06
:104940000901204408F0D0F9AF42B14424683E4642
:104950004FF0000028BF2E46002DEDD1BDE8F883B2
:104960002DE9F8430446C788407907FB00F0043876
:1049700002EB030C1E1D6045154638BFC51AB74231
:104980008846B6FBF7F107FB116202D801392468AB
:10499000FCD1BE1AAE4228BF2E469DB14FF0000991
:1049A000111DAD1B3246214408EB090008F09CF9AB
:1049B000AF42B14424683E464FF0000228BF2E4665
:1049C000002DEDD1BDE8F8838368D3F84831C3F3F7
:1049D00040029B0766D4012960D82DE9F04F334B84
:1049E000334C34491B1B8DB081469808A1FB000154
:1049F0001B2B0B914FD9DFF8CCB092462BE0961BC6
:104A00000020FEF74DF994F810E06369642505FB7A
:104A100006FC5A4605FB08F50821B5FBF7F54846A4
:104A20000A95BCFBF7FCBEF1000F27D1224D07957C
:104A3000CDE901C60A9D0495099DCDF81480009525
:104A400006970397FEF77CFE0B9B0AF1010A53457C
:104A500004F11C041FD9D4E90272236809920020D2
:104A6000D3F80880FEF714F923681E685A68964246
:104A7000C5D9A368013313449E1BC1E7099A00926C
:104A80000E4A0397CDE90672CDE90458CDE901C677
:104A90005A460821D6E70DB0BDE8F08F084A02213A
:104AA000FEF74EBE00221146FFF718B9F4020100CE
:104AB000F402010025499224B4FD0000C0FD00006D
:104AC000ECF5000038FD000003689868704700BFEF
:104AD000036800229A60704710B568B90E4CA3684D
:104AE000012262703BB1D3E900230020A260984705
:104AF000A368002BF7D110BD0128FCD1064C236917
:104B0000A070002BF7D0D3E9002301202261984741
:104B10002369002BF7D110BDDC07002010B50D4C28
:104B2000237882B043B185200B4BD3F800340BB10E
:104B30000123A37002B010BD08486360A360236125
:104B4000E36000F005F9019000F00EF901230198EF
:104B50002370E9E7DC07002000000140D94A00008B
:104B600038B5154DAB78044673B110B143680120D8
:104B700098470020FEF78CF8EB680133EB600020CB
:104B8000BDE83840FEF78CB803F0FF00FEF780F870
:104B900064B12A6942B1944208D0134601E09C42B4
:104BA00004D01B68002BFAD122602C61EB68002B2B
:104BB000E2D100F0EFF8DFE7DC07002038B5154D53
:104BC0006B78044673B110B1436800209847002009
:104BD000FEF75EF86B6801336B600020BDE838407B
:104BE000FEF75EB803F0FF00FEF752F864B1AA6862
:104BF00042B1944208D0134601E09C4204D01B68A5
:104C0000002BFAD12260AC606B68002BE2D100F07F
:104C1000D3F8DFE7DC0700204FF08043D3F80C0423
:104C200000F00110A0F10110B0FA80F040097047C7
:104C300010B5074C23784BB9064B002808BF18461F
:104C400000F082FB08B90123237010BD852010BD40
:104C5000F007002044FE000030B50A4B0A4C53F820
:104C6000213054F82110027885B0D0E901548DF834
:104C70000020C26801958DF8084003926846984765
:104C800005B030BDFC070020F407002030B50A4B0A
:104C90000A4C53F8213054F82110027885B0D0E93D
:104CA00001548DF80020C26801958DF808400392E8
:104CB0006846984705B030BDFC070020F407002087
:104CC000F0B5184B067843F82620174B0446487F6A
:104CD00098551546154A8E46096942F826102278DD
:104CE0009F5CBEE80F0089B0EC46ACE80F009EE880
:104CF0000F008CE80F0004964FB1002D0C4A694656
:104D000008BF2A46201D00F083FF09B0F0BD002D2A
:104D1000084A694608BF2A4604F10C0000F0D8FC96
:104D200009B0F0BDFC07002004080020F4070020B3
:104D3000594C00008D4C0000034653E8000F00EA78
:104D4000010243E8002C9CF0000FF6D1704700BF31
:104D5000044A137923B901211060918018467047E5
:104D60008520704708080020084B1A68D20704D431
:104D7000C02283F8002301221A60054A4FF08041C7
:104D80000123C1F818351370704700BF00E100E03F
:104D9000100800204FF080430022C3F8042182B0A5
:104DA000D3F804210192019802210122C3F80413CF
:104DB0009A6002B0704700BF4FF080430022C3F8F2
:104DC000002182B0D3F80021019201990122C3F899
:104DD00004231A6002B0704710B54FF0804382B0D0
:104DE000D3F8002162B10021164AC3F80011D3F8AC
:104DF0000011507900910121009CC3F80813A8B15B
:104E00004FF08043D3F80421CAB10022C3F8042133
:104E1000D3F80421019202210A4A0198C3F8081329
:104E20001368012002B0BDE81040184713685171A3
:104E300098474FF08043D3F80421002AE5D102B00F
:104E400010BD00BF080800202DE9F047002384B002
:104E5000CDE902331C4AD2F80011012900F0288262
:104E60001E46194BD3F80421012A00F01282164B7A
:104E7000D3F80821012A00F0FD81134BD3F80C214F
:104E8000012A00F0E881104BD3F81021012A00F02C
:104E9000D3810D4BD3F81421012A00F0B9810A4BBC
:104EA000D3F81821012A00F0A481074BD3F81C2164
:104EB000012A0BD0044BD3F87C21012A00F019827F
:104EC00056BB04B0BDE8F08700600040D3F804236F
:104ED0001206EFD50022C3F81C21D3F81C11009153
:104EE000D3F87C110098012946F0800614D1C3F84C
:104EF0007C21D3F87C3101934FF0A042019BD2F882
:104F00002015CB4B0291C2F82015D3F8202503922F
:104F1000C3F8202546F00046C64F00240125A30013
:104F200003F18043354203F5C0434FEA45050BD0FA
:104F3000D3F8100557F82420D3F81015C0F3052036
:104F4000C1F3014102B190470134082CE7D1002E92
:104F5000B7DAB84CB64E01254FF0A04794F960007F
:104F6000431C46D0C0F3C20204AB1A4400F007034E
:104F700012F8082C05FA03F31A42C1B200F03F0000
:104F800037D01F2800F2258102464FF0A04909EBD7
:104F9000820305FA02F2D3F800C7D3F800E72EF433
:104FA000403EC3F800E704EB000ECCF3014C9EF941
:104FB00030E0D3F800A754F82E80BCF1020F0CBFEC
:104FC0004FF4403E4FF4003E4EEA0A0EC3F800E7AD
:104FD000C9F82025B8F1000F0BD08909032900F08A
:104FE0007C81BCF1020F00F07581BCF1030F00F071
:104FF000A08194F96100411C46D0C0F3C20204AB09
:105000001A4400F0070312F8082C05FA03F31A42B9
:10501000C1B200F03F0037D01F2800F2DE80024608
:105020004FF0A04909EB820305FA02F2D3F800C75A
:10503000D3F800E72EF4403EC3F800E704EB000E7F
:10504000CCF3014C9EF930E0D3F800A754F82E8041
:10505000BCF1020F0CBF4FF4403E4FF4003E4EEA4D
:105060000A0EC3F800E7C9F82025B8F1000F0BD0ED
:105070008909032900F03681BCF1020F00F02F816D
:10508000BCF1030F00F0598194F96200421C46D034
:10509000C0F3C20204AB1A4400F0070312F8082C54
:1050A00005FA03F31A42C1B200F03F0037D01F28BF
:1050B00000F2978002464FF0A04909EB820305FAFF
:1050C00002F2D3F800C7D3F800E72EF4403EC3F84D
:1050D00000E704EB000ECCF3014C9EF930E0BCF18C
:1050E000020F54F82E80D3F800E70CBF4FF4403A7B
:1050F0004FF4003A4EEA0A0EC3F800E7C9F820253B
:10510000B8F1000F0BD08909032900F0F080BCF141
:10511000020F00F0E980BCF1030F00F0068194F962
:105120006300431C45D0C0F3C20204AB1A4400F034
:10513000070312F8082C05FA03F31A42C1B200F073
:105140003F0036D01F2850D802464FF0A04909EB47
:10515000820305FA02F2D3F800C7D3F800E72EF471
:10516000403EC3F800E704EB000ECCF3014C9EF97F
:1051700030E0D3F800A754F82E80BCF1020F0CBF2A
:105180004FF4403E4FF4003E4EEA0A0EC3F800E7EB
:10519000C9F82025B8F1000F0BD08909032900F0C8
:1051A0009780BCF1020F00F09080BCF1030F00F07B
:1051B000B880D7F820250292C7F82025D6F82035E8
:1051C0000393C6F8203513437FF4C8AE04B0BDE89E
:1051D000F08701F01F02B146D9E601F01F02B14687
:1051E00020E701F01F02B14667E701F01F02B14658
:1051F000ADE7D3F8042351067FF557AE0022C3F87C
:105200001821D3F818310093009B46F040064CE675
:10521000D3F8042390067FF542AE0022C3F8142190
:10522000D3F814310093009B46F0200637E600BF08
:105230000003005018080020D3F80423D4067FF59B
:1052400028AE0022C3F81021D3F810310093009B40
:1052500046F010061DE6D3F8042315077FF513AEBC
:105260000022C3F80C21D3F80C310093009B46F0C8
:10527000080608E6D3F8042357077FF5FEAD0022A1
:10528000C3F80821D3F808310093009B46F00406C8
:10529000F3E5D3F8042392077FF5E9AD0022C3F8C4
:1052A0000421D3F804310093009B46F00206DEE5AA
:1052B000D2F8046316F001063FF4D3ADC2F8003112
:1052C000D2F800310093009BCBE501297FF471AF48
:1052D000C0476EE701297FF48CAEC04789E60129FB
:1052E0007FF4D2AEC047CFE601297FF418AFC047A4
:1052F00015E70022C3F87C21D3F87C3101934FF0ED
:10530000A042019BD2F820150E4B0291C2F8201545
:10531000D3F820250392C3F82025002E3FF419AEC0
:10532000F8E502297FF445AFD2E702297FF4F7AE12
:10533000DDE702297FF45DAECFE702297FF4A4AE5A
:10534000D0E700BF000300500E4A1378C3B90378BA
:105350000D494FF0804CC3F34003CCF880350378FF
:1053600003F00103CCF878350B68DB0704D4C023C5
:1053700081F8003301230B60012313700020704774
:10538000852070479008002000E100E010B54FF044
:10539000804386B0D3F80443620703D5D3F80821CD
:1053A000002A62D1A30605D54FF08043D3F814211B
:1053B000002A4FD1600605D54FF08043D3F818215D
:1053C000002A3BD1210604D54FF08043D3F81C219D
:1053D0004ABBE20504D54FF08043D3F82021B2B98F
:1053E000A30512D54FF08043D3F824216AB10022DF
:1053F000C3F82421D3F82421214B0592059A1B6878
:10540000022006B0BDE81040184706B010BD0022CB
:10541000C3F820211A4AD3F82031049301201368DD
:10542000049A9847DCE70020C3F81C01144AD3F81B
:105430001C3103931368039A9847CAE70022C3F804
:105440001821104AD3F81831029301201368029AE8
:105450009847B7E70020C3F814010A4AD3F814317B
:1054600001931368019A9847A4E70022C3F8082122
:10547000054AD3F8083100931368009A984791E7DA
:105480008C080020880800208408002008B5FFF759
:105490007DFFBDE80840FFF79FBC00BF014B1B68C4
:1054A000184700BF9408002038B50C4B984213D120
:1054B00000200D46FDF7ECFB094B1C7924B10020C0
:1054C000FDF7EEFB112038BD012220461D601A7148
:1054D000FDF7E6FB204638BD002038BD0020004027
:1054E00094080020034B984203D1034B00221A601A
:1054F0001A7170470020004094080020000000004E
:1055000010B5714AD2F8043399058AB068D5D2F83B
:105510002431002B64D00023C2F82431D2F8243186
:1055200001934FF40171694B0198C2F8081393F885
:10553000291009B901215160634902228DF8182010
:10554000D1F88024C1F880249FED5D7B9969D868EB
:105550000790CDE9081283ED067BD3E9001206A877
:105560009047594AD2F81C31C3B1584B5869196A4F
:1055700088426AD993F8281001F0FF00002964D10D
:10558000C2F81C01D2F81C11039103999C68186A97
:10559000196A205C01311962C2F81C054A4AD2F826
:1055A0004431DBB10021494BC2F84411D2F8440127
:1055B00093F829100090009809B1012111609A69AF
:1055C00062B1D8685C6A00210122CDE907049961C3
:1055D0008DF8182006A8D3E9001290470AB010BD34
:1055E000394AD2F804335B07BBD5D2F80831002B17
:1055F000B7D0364B996900293ED00021C2F8081176
:10560000D2F8081104910499D868596AD2F818257B
:1056100042545A6A996901325A625A6A8A42A0D13E
:10562000DA691968002A30D0D8689A611A695C6A08
:105630000790DA60002001220894D86158625C6803
:105640008DF8182006A8A0478BE71F4A0020C2F853
:105650001C01D2F81C210292029A5A69002A9DD09C
:10566000D3E901215C698DF81800CDE90714586170
:10567000196806A8904791E7C2F80811D2F8080106
:1056800005900598D2F81825C7E793F8292012B994
:105690000D4A012050600C4A4FF40170C2F8080313
:1056A000586ADA6800249C610124CDE907205B6810
:1056B0008DF8184006A8984753E700BFAFF3008065
:1056C000000000000000000000200040A0080020B2
:1056D0002DE9F041724E90F804802C2303FB0863FF
:1056E00082B093F82A30002B40F09C8005460C468F
:1056F00000686C491746FFF7D7FE002840F08E80FF
:105700002368591C19D01F2B4FF001028ABF66492C
:105710004FF0A04103F01F0302FA03F3C1F808356C
:1057200023681F2B86BF03F01F035F4A4FF0A04280
:1057300003F5E073032142F8231063685A1C0BD071
:105740001F2B86BF03F01F03574A4FF0A04203F5FB
:10575000E073002142F823102B68A269C3F82425C6
:10576000227D637D13432A68C2F86C35D4E90012A8
:105770002B68C3F81425C3F80C15237D012B5AD0D0
:105780002C2303FB08F3F21857602269F25097B3F9
:105790002A68237F0021C2F81C11D2F81C21009234
:1057A000009A2A68C2F84411D2F844210192019A61
:1057B0002A683E49C2F804132A6842F307315B01A4
:1057C0000029DBB24FEA123230DB01F1604101F512
:1057D000614181F800332B6843F30732002A4FEA16
:1057E000133109DB324C5209012301F01F0103FA86
:1057F00001F144F822102B680422C3F800252C2361
:1058000003FB086601220023C6E9063386F8293027
:10581000736186F82A2002B0BDE8F081112002B041
:10582000BDE8F081082002B0BDE8F081214902F016
:105830000F028B54CFE7A368591C0BD01F2B86BFD8
:1058400003F01F0318494FF0A04103F5E073002255
:1058500041F82320E3685A1C1AD01F2B8ABF124933
:105860004FF0A04103F01F03012202FA03F3C1F835
:105870000835E3681F2B88BF03F01F0303F5E073AF
:105880008CBF09494FF0A041032241F82320E3686F
:105890002A68A168C2F80835C2F8101570E700BF81
:1058A000A008002001550000000300508000020005
:1058B00000E100E014ED00E0F8B5036807793D4C25
:1058C0000022C3F800252C2303FB07435B68C3B108
:1058D0000368394AC3F80823036843F30732002AF0
:1058E0004FEA13310EDB5209344D2032012301F00F
:1058F0001F0103FA01F145F82210BFF34F8FBFF3E8
:105900006F8F0368D3F80C65D3F81455D3F80825C6
:10591000D3F810154FF0FF3CC3F814C5C3F80CC5FD
:1059200003686645C3F808C5C3F810C50CD01F2E20
:1059300086BF06F01F06224B4FF0A04306F5E07627
:105940004FF0020C43F826C06E1C0BD01F2D86BFF3
:1059500005F01F051A4B4FF0A04305F5E075022630
:1059600043F825604D1C0BD01F2986BF01F01F0195
:10597000134B4FF0A04301F5E071022543F821508D
:10598000531C0BD01F2A86BF02F01F020C4B4FF096
:10599000A04302F5E072022143F822100068FFF7ED
:1059A000A1FD2C2303FB0744002384F82A30636005
:1059B000F8BD00BFA00800208402020000E100E062
:1059C000000300502DE9F041334C90F804E02C2303
:1059D00003FB0E438446586984B000284ED15A61B7
:1059E0009960186283F82800DCF80020C2F81C01D6
:1059F000D2F81C210292029ADCF800200121916069
:105A0000DCF800209D68C2F81C01D2F81C1101913D
:105A10000199196A6E5C196A01311962C2F81C6534
:105A20005A6812B104B0BDE8F0815E691A6ADCF808
:105A3000001096421BD9074602E093F828200ABBC3
:105A4000D1F81C21002AF8D0C1F81C71D1F81C2112
:105A50000392039A1A6A15F802801A6A01321A62CE
:105A6000C1F81C851A6A9642EAD8DCF80010D1F811
:105A70001C31002BFBD00123CB6004E0112004B0CB
:105A8000BDE8F0810F202C2303FB0E44002363614B
:105A900004B0BDE8F08100BFA008002000000000B5
:105AA000F0B5594BD3F824218BB0002A58D00022EE
:105AB000C3F82421D3F82411049102228DF8182070
:105AC0000499524AD3F88014C3F880149FED4C7B9C
:105AD0000991D3F83C45D06882ED067BCDE90704F7
:105AE000D2E9001306A89847474BD3F8442152B196
:105AF0000021464AC3F84411D3F844019169039048
:105B00000398002960D1404BD3F8202162B10020D6
:105B1000C3F82001D3F82021029201213B4A029CC4
:105B2000D9605169002942D1374BD3F85821AAB125
:105B30000020C3F85801D3F85811344A0191019953
:105B4000516959B1D3F84C458DF81800D2E90131AB
:105B50005061CDE9071406A8116898470BB0F0BD55
:105B6000D3F810110029BFD0C3F81021D3F81011B9
:105B7000264C05910599A169D3F83C058842B3D11B
:105B8000E569E768A561D4E900167DB3E261D3F861
:105B9000002222F02002C3F800222369E3600123DF
:105BA000CDE907708DF8183006A8B0479CE7D3F808
:105BB0004C458DF81800D2E901315061CDE9071448
:105BC00006A811689847AFE79FED0D7BD3F83C45D9
:105BD000D0684FF0010CCDE9070482ED067BD2E9D5
:105BE00000138DF818C006A898478CE70123CDE96B
:105BF00007708DF8183006A8B04775E7AFF300803E
:105C0000000000000000000000200040D00800203C
:105C10002DE9F04307797E4E07EBC70306EB8303BC
:105C200087B093F82030002B40F0B58004460D4635
:105C3000006878499046FFF737FC002840F0A780BD
:105C40002B68591C4FEAC70919D01F2B4FF00102CE
:105C50008ABF71494FF0A04103F01F0302FA03F31A
:105C6000C1F808352B681F2B86BF03F01F036A4A53
:105C70004FF0A04203F5E073032142F823106B6854
:105C80005A1C0BD01F2B86BF03F01F03624A4FF034
:105C9000A04203F5E073002142F823102368AA69AB
:105CA000C3F824252B7D6A7D1A432368C3F86C252D
:105CB000D5E900312268C2F80C35C2F814152B7DE5
:105CC000012B71D009EB070206EB8203C3F80480B5
:105CD0002B6946F82230B8F1000F47D021682B7F9E
:105CE0000022C1F81021D1F8101101910199216809
:105CF000C1F82021D1F82011029102992168C1F840
:105D00002421D1F82411039103992168C1F8442179
:105D1000D1F84411049104992168C1F85821D1F8AF
:105D200058210592059A22683C49C2F8041322685A
:105D300042F307315B010029DBB24FEA12322EDB5E
:105D400001F1604101F5614181F80033226842F3BD
:105D50000733002B4FEA123109DB314D5B09012279
:105D600001F01F0102FA01F145F8231022684F44A7
:105D700006EB87060121002386F820100821C2F8CF
:105D80000015C6E90633736107B0BDE8F083112042
:105D900007B0BDE8F083082007B0BDE8F0832149D3
:105DA00002F00F028B54D1E7AB68591C0BD01F2BAC
:105DB00086BF03F01F0318494FF0A04103F5E073BD
:105DC000002241F82320EB685A1C1AD01F2B8ABFEF
:105DD00011494FF0A04103F01F03012202FA03F31F
:105DE000C1F80835EB681F2B88BF03F01F0303F5CC
:105DF000E0738CBF08494FF0A041032241F82320F3
:105E0000EB682268A968C2F80835C2F8101559E78E
:105E1000D0080020A15A00000003005010034200E7
:105E200000E100E014ED00E02DE9F0410579564C69
:105E300005EBC50304EB830301465B68006882B091
:105E4000EE00C3B1514BC0F808330B6843F307327F
:105E5000002A4FEA13330EDB5209DFF838C1203233
:105E6000012703F01F0307FA03F34CF82230BFF3B6
:105E70004F8FBFF36F8F731904EB83039A69D0F8C8
:105E8000003223F02003C0F8003242B10023C0F8F2
:105E90004431D0F844310093009B01234360002338
:105EA000C0F85831D0F858310193019B7319012281
:105EB00004EB8303C2609A69D0F85831002BFBD001
:105EC0001AB1D0F84431002BF6D00023C0F80035C9
:105ED0000B684FF0FF38D3F80CE5D3F814C5D3F8AE
:105EE0000825D3F81075C3F80C85C3F814850B6822
:105EF000C645C3F80885C3F810850CD0BEF11F0F46
:105F000086BF0EF01F0E22494FF0A0410EF5E07E35
:105F1000022341F82E30BCF1FF3F0CD0BCF11F0F23
:105F200086BF0CF01F0C1A494FF0A0410CF5E07C25
:105F3000022341F82C30791C0BD01F2F86BF07F0AD
:105F40001F0713494FF0A04107F5E077022341F8FE
:105F50002730531C0BD01F2A86BF02F01F020C49AA
:105F60004FF0A04102F5E072022341F82230FFF722
:105F7000B9FA354404EB8504002384F820306360CB
:105F800002B0BDE8F08100BFD0080020100342003D
:105F90000003005000E100E001F0604CBCF1005F44
:105FA00030D170B590F804E0264C0EEBCE0C04EB2B
:105FB0008C0C0346DCF8140082B04FEACE050028B2
:105FC0003BD1CCF81420CCF808101A68C2F8200194
:105FD000D2F820210192019A1A68C2F85801D2F829
:105FE00058210092009A1A68DCF81460C2F844152F
:105FF000C2F848651A6801219160DCF804201AB1E2
:1060000002B070BD102070471A6800E0C0B9D2F825
:106010002011D2F858010029F8D088B90121D160A7
:106020001B68D3F85821002AFBD005EB0E0304EBC4
:10603000830300225A6102B070BD112002B070BD0E
:106040000F20F2E7D008002030B44C68A34208D9F2
:10605000002545600968016093420CD0002030BCE7
:10606000704743600D6805600868E41A184493425D
:106070004C600860F2D1201E18BF012030BC704770
:106080004B689A4228BF1A460B68C0E90032D1E932
:106090000030801A1A44C1E90020003818BF0120DE
:1060A000704700BF4B689A4228BF1A4662B10B681E
:1060B000C0E90032D1E90030801A1344C1E9003050
:1060C000101E18BF012070471346F1E700B50A48BB
:1060D0000A4A0B49126883B000234FF0010C037089
:1060E000ADF805308DF807308DF804C001A80B70AD
:1060F000904703B05DF804FBF4080020F80A002084
:10610000FC0A0020704700BF00B583B00D4B0E495C
:1061100000228DF80420D3F82025ADF80620D3F80E
:10612000C0040A4A0968136800280CBF4FF4807045
:106130004FF00120034301A81360884703B05DF8C6
:1061400004FB00BF00700240F80A0020D4090020C0
:10615000F8B54B680B4F934228BF13461D460C46BB
:1061600006461A460968384606F0BEFDC6E90075BF
:10617000D4E90020401B2A44C4E90020003818BF9D
:106180000120F8BD000B0020F8B54B68934228BFF2
:1061900013460D461C4606465BB933607460D5E96C
:1061A0000032121B2344C5E90032201E18BF012013
:1061B000F8BD044F09681A46384606F095FD376069
:1061C000ECE700BF000B00204FF08053D3F83031D4
:1061D000082B03D1164B0022C3F81C2C154B164973
:1061E0009A7B0020032A08700CD010B51C6882B07E
:1061F0006CB10F4B0122DA64BFF36F8FBFF34F8F87
:1062000002B010BD0D486FF48031FEF795BD6FF4FC
:1062100080310A48FEF790FD094BADF80640062292
:106220001B688DF8042001A8984702B010BD00BF7C
:1062300000700240D8090020F50800206409002001
:10624000F80A002010B5264BD3F80044C3F80044E8
:1062500082B0BFF36F8FBFF34F8FBFF36F8FBFF36A
:106260004F8FE1050ED51F481F4A002302218DF8EC
:106270000730ADF805308DF804100368012101A83E
:1062800011709847A2050DD5164A174912680023C8
:1062900003208DF80400ADF805308DF8073001A813
:1062A0000B709047630519D50F4B1A78B2B10C49A2
:1062B000012000221A70C1F808058865BFF36F8FAE
:1062C000BFF34F8F074BADF8052004211B688DF8F5
:1062D00004100DEB01008DF80720984702B010BDA7
:1062E00000700240F80A0020F408002030B53C4B52
:1062F0003C491C780A68200683B004F00F0316D4CA
:106300001033012000FA03F31A430A60364A126878
:1063100013420AD1354B8DF8070006221B688DF811
:1063200004208DF8064001A8984703B030BD012530
:106330009D402A430A602E491AB231F8133003F106
:10634000804303F51C331968E1B100211960BFF3E4
:106350006F8FBFF34F8F4FF08053802CD3F83031C5
:1063600021D0082B04BF234BC3F81C1C224B002157
:106370001970224B110103EB0212927B032A2AD0DF
:106380005B5843B3184B1B682B40CED1174A8DF88E
:106390000640062112688DF804108DF8073001A818
:1063A000904703B030BD082B08BF124B124A08BFFC
:1063B000C3F81C1C124B0021117093F89E20032A75
:1063C00003D0D3F89030002BDCD16FF001010648E8
:1063D000FEF7B2FCD6E7E9430348FEF7ADFCD1E790
:1063E000FC0A0020D409002064090020F80A0020DB
:1063F00088FE000000700240F5080020680A0020B6
:10640000D80900202DE9F04FDFF814A2DFF814823C
:10641000DAF80040D8F80030234089B000F09280CC
:1064200013F0012400F0918094FAA4F4002C00F001
:106430009180B4FA84F201239340DB430F2A15467E
:10644000019317D8DFF8E0A10FFA82F90AEB0916D9
:106450004FEA091962F07F075AF80930B28971686A
:1064600006A898477FB22C4605F0080B30BB4AF8C7
:10647000090023E0A2F110056BB20293624B5FFAB0
:1064800085F915F0080B4C4603EB09166BD14D4608
:106490005E4A05F594734FF0000B52F82330B28931
:1064A00071683768039306A8B847069A1AB1079A25
:1064B000039B93427ED8029F00B930604FF0805317
:1064C000D3F83031082B03D1504B8222C3F81C2C57
:1064D000D8F80030019A1340C8F80030079AB36822
:1064E0001344B3604A4B0121002F1970069B48DB0F
:1064F000BBF1000F50D04549AD00C1F8A037C1F83D
:10650000A42728232B44DBB203F1804303F51C337B
:1065100001221A60BFF36F8FBFF34F8F3D4A3E4B8E
:106520003A4913EA270338BF134633F8142002F11F
:10653000804202F51C3202E0D1F8003113B9136831
:10654000002BF9D009B0BDE8F08F93FAA3F4002C2A
:106550007FF46FAF10224FF0FF332B4E029225468F
:106560000193914694E7294BD3F8C034DA0348D518
:106570003568B2897168029F06A80023A8474D4676
:106580009AE7BBF1000F2ED02049AD00C1F8A0362C
:10659000C1F8A4260423B5E705EB8501890001F1C4
:1065A000804101F51C31AD00C1F80037C1F8042766
:1065B0002823A7E702240199B4735046FEF7BCFBD9
:1065C000164B8DF8174006221B688DF816908DF833
:1065D000142005A89847DAF80040D8F80030234086
:1065E0007FF41EAFAEE705EB8501890001F1804124
:1065F00001F51C31AD00C1F80036C1F804260423B2
:1066000080E74D464BE700BFD809002000700240EC
:10661000F5080020A8FE000088FE0000F80A00200F
:1066200064090020D4090020680A002010B54FF04A
:10663000805382B0D3F83031082B03D1164B00229F
:10664000C3F81C2C154B164C93F83E200021032A4E
:10665000217006D01B6B73B102B0BDE81040FFF78C
:10666000D1BE10486FF40021FEF766FB2378002BA3
:10667000F2D002B010BD6FF400210A48FEF75CFBB7
:10668000094B062103221B688DF80410ADF8062083
:1066900001A89847EAE700BF00700240D80900202F
:1066A000F508002064090020F80A00204FF080530C
:1066B000D3F83031082B03D1114B0022C3F81C2C26
:1066C000104B114993F88E200020032A087002D045
:1066D000D3F8803003B1704700B56FF0807183B09C
:1066E0000A48FEF729FB0A4B062108221B688DF891
:1066F0000410ADF8062001A8984703B05DF804FB2C
:1067000000700240D8090020F5080020640900202C
:10671000F80A00204FF08053D3F83031082B03D112
:10672000144B0022C3F81C2C134B144993F81E2160
:106730000020032A087003D0D3F810312BB1704722
:106740000F486FF48071FEF7F7BA00B56FF48071EF
:1067500083B00B48FEF7F0FA0A4B062188221B682B
:106760008DF80410ADF8062001A8984703B05DF835
:1067700004FB00BF00700240D8090020F50800208B
:1067800064090020F80A00204FF08053D3F830311C
:10679000082B03D10A4B0022C3F81C2C094B0A49D1
:1067A00093F89E200020032A087003D0D3F890307D
:1067B00003B1704705486FF00101FEF7BDBA00BF95
:1067C00000700240D8090020F5080020640900206C
:1067D0004FF08053D3F83031082B03D10A4B0022FD
:1067E000C3F81C2C094B0A4993F8AE200020032A59
:1067F000087003D0D3F8A03003B1704705486FF09C
:106800000201FEF799BA00BF00700240D8090020CB
:10681000F5080020640900204FF08053D3F8303190
:10682000082B03D10A4B0022C3F81C2C094B0A4940
:1068300093F8BE200020032A087003D0D3F8B030AC
:1068400003B1704705486FF00401FEF775BA00BF49
:1068500000700240D8090020F508002064090020DB
:106860004FF08053D3F83031082B03D10A4B00226C
:10687000C3F81C2C094B0A4993F8CE200020032AA8
:10688000087003D0D3F8C03003B1704705486FF0EB
:106890000801FEF751BA00BF00700240D80900207D
:1068A000F5080020640900204FF08053D3F8303100
:1068B000082B03D10A4B0022C3F81C2C094B0A49B0
:1068C00093F8DE200020032A087003D0D3F8D030DC
:1068D00003B1704705486FF01001FEF72DBA00BFF5
:1068E00000700240D8090020F5080020640900204B
:1068F0004FF08053D3F83031082B03D10A4B0022DC
:10690000C3F81C2C094B0A4993F80E210020032AD6
:10691000087003D0D3F8003103B1704705486FF019
:106920008001FEF709BA00BF00700240D8090020BC
:10693000F5080020640900204FF08053D3F830316F
:10694000082B03D10A4B0022C3F81C2C094B0A491F
:1069500093F8EE200020032A087003D0D3F8E0302B
:1069600003B1704705486FF02001FEF7E5B900BF9D
:1069700000700240D8090020F508002064090020BA
:106980004FF08053D3F83031082B03D10A4B00224B
:10699000C3F81C2C094B0A4993F8FE200020032A57
:1069A000087003D0D3F8F03003B1704705486FF09A
:1069B0004001FEF7C1B900BF00700240D8090020B5
:1069C000F50800206409002010B54FF0805382B014
:1069D000D3F83031082B03D1154B0022C3F81C2CFF
:1069E000144B154C9A7F0021032A217006D01B6995
:1069F00073B102B0BDE81040FFF704BD0F486FF45B
:106A00000031FEF799F92378002BF2D002B010BDC7
:106A10006FF400310948FEF78FF9094B0621012276
:106A20001B688DF80410ADF8062001A89847EAE726
:106A300000700240D8090020F508002064090020F9
:106A4000F80A002010B54FF0805382B0D3F83031EF
:106A5000082B03D1164B0022C3F81C2C154B164CE7
:106A600093F84E200021032A217006D01B6C73B1CD
:106A700002B0BDE81040FFF7C5BC10486FF48011AC
:106A8000FEF75AF92378002BF2D002B010BD6FF454
:106A900080110A48FEF750F9094B042206211B68B1
:106AA0008DF80410ADF806200DEB02009847E9E7D9
:106AB00000700240D8090020F50800206409002079
:106AC000F80A002010B54FF0805382B0D3F830316F
:106AD000082B03D1164B0022C3F81C2C154B164C67
